:100000001BC03FC03EC0A3C23CC00AC2D9C239C057
:1000100038C037C036C035C034C033C032C031C03C
:1000200030C02FC02EC049C346C343C340C33DC3E5
:1000300011C339C346C3780611241FBECFE5D4E0EF
:10004000DEBFCDBF11E0A0E6B0E0EAE1FEE002C015
:1000500005900D92A038B107D9F722E0A0E8B1E0F1
:1000600001C01D92A132B207E1F710E0C8E3D0E071
:1000700003C02297FE01C1D6C633D107D1F727D6D8
:10008000CAC6BECFCF93DF93EC013CD31A8A88EE69
:1000900093E09C8B8B8B1D8A1E8A1F8A188E198E6B
:1000A0001A8E84E08B8FDF91CF91089554C3AF9265
:1000B000BF92CF92DF92EF92FF920F931F93CF9355
:1000C000DF9300D0CDB7DEB77C01DC011F968C91A9
:1000D0008111B1C089B78F7789BF80918D019091CF
:1000E0008E019A83898389B7806889BF29813A8183
:1000F000F701038914890115110591F4158AC701C7
:10010000B1D58823B1F10F900F90DF91CF911F915E
:100110000F91FF90EF90DF90CF90BF90AF90089538
:100120003695279536952795ABE7B4E116D6969583
:100130008795AC0160E070E0F70186899789A08D12
:10014000B18D5A016B01A81AB90ACA0ADB0A20E06C
:1001500030E0A016B106C206D30688F2468B578B54
:10016000608F718F85898F5F858BC7017BD58111EA
:10017000CACFF70182899589890F948D91115EC04C
:10018000D701E28DE80F5A96EC93D7015B964C911C
:1001900050E0440F551FA5E5AE0FB0E0A058BF4F8B
:1001A0008C91849F9001859F300D1124A1EAB0EAC3
:1001B000D4D56C01D694C794D294C2949FE0C9223E
:1001C000CD24D922CD24AAEAAE0FB0E0A058BF4F6B
:1001D0008C91849F9001859F300D1124A1EAB0EA93
:1001E000BCD58C0116950795129502950F700127C5
:1001F0001F700127F0E0E058FF4F8081849F90013D
:10020000859F300D1124A9D5969587959295829555
:100210008F7089279F708927F70191838083D68209
:10022000C5821387028781E08787C7011BD3D70167
:1002300055961C9268CFC70115D34CCFE28DE81BB1
:10024000D7015A96EC93A1CFCF92DF92EF92FF9213
:100250000F931F93CF93DF938C01EB0120918401C7
:1002600030918501CB01821B930B97FDA9C04A9762
:100270006CF08091820190918301A901481B590B78
:10028000CA01C2968536910508F488C02C173D072F
:1002900009F484C0CE01895E9340873E53E0950700
:1002A00008F07CC0835F914097FDADC045E050E011
:1002B0009C012B5F3F4F2B30310508F085C040E09B
:1002C00050E02091800130918101C901880F991F70
:1002D000880F991F880F991F821B930B840F951FFE
:1002E0006AE070E00BD59B017093810160938001FF
:1002F000FB0177FD8BC049E14E9FC0014F9F900DE0
:1003000011247C01F594E79467E570E0F7D46B5F06
:100310007F4F6E157F0508F06E2D653608F066C0BC
:10032000D8015B966C932115310509F467C037FD40
:1003300072C0D8015C961C92D80151963C932E93C2
:100340005097DF0128EA3CE34BE150E018D520E666
:100350003AEE40E050E0E5D469017A01CA01B90102
:1003600028EE33E040E050E0DCD4F801228BA22FED
:10037000BB27A7FDB09528EE33E0FBD4A70196017B
:10038000261B370B480B590B60E177E280E090E0C9
:10039000C8D4D80154963C932E935397D09385019B
:1003A000C0938401D0938301C093820181E0DF91E7
:1003B000CF911F910F91FF90EF90DF90CF90089514
:1003C00091958195910953CF9C01241B350B4BE0EE
:1003D000429FC001439F900D11246AE070E08ED4CB
:1003E000AB01440F551F460F571F6BCF84E6D80152
:1003F0005B968C932115310509F099CFF801148A89
:10040000138A128ACBCF4BEF5FEF52CFEE27FF2735
:10041000E61BF70B70CF81E0D8015C968C938CCFF4
:100420001F920F920FB60F9211242F933F938F9329
:100430009F93CF93DF9300D000D0CDB7DEB77894F1
:1004400084B599B79F7799BF20918D0130918E0126
:100450003A83298399B7906899BF29813A8190E0BE
:1004600096958795820F931F9C838B8380918A0139
:10047000811112C080918B0181111DC08B819C81E3
:10048000909389018093880181E080938A01809311
:100490008B018EB580648EBD0F900F900F900F90E2
:1004A000DF91CF919F918F913F912F910F900FBE30
:1004B0000F901F9018958B819C819093870180935A
:1004C00086018EB58F7B8EBD10928B01E5CF00002B
:1004D000089510928A0181E080938B01B898C098AA
:1004E0008EB580648EBD89B7806289BF089589B753
:1004F0008F7D89BF80918A0199B7906299BF0895D5
:10050000CF93DF9300D000D0CDB7DEB789B78F7D12
:1005100089BF80918801909189019C838B83809110
:100520008601909187019A83898310928A0189B705
:10053000806289BF8B819C8129813A81821B930BC8
:100540000F900F900F900F90DF91CF9108951F9211
:100550000F920FB60F9211248F939F93AF93BF9377
:1005600080918D0190918E018C599F4F90938E01B7
:1005700080938D0180918C018F5F8A30F0F0109212
:100580008C0180918F0190919001A0919101B09187
:1005900092010196A11DB11D80938F01909390014E
:1005A000A0939101B0939201BF91AF919F918F91D0
:1005B0000F900FBE0F901F90189580938C01F4CF71
:1005C0001F920F920FB60F9211242F933F934F93C8
:1005D0008F939F93AF93BF93EF93FF93789480E8AB
:1005E0009EE39BBD8ABD80910102882309F1E091C1
:1005F000FD01F091FE012AE030E041E08081808140
:1006000090E08830910510F110920102411123C051
:100610008381823069F51DBC1CBC21503109211534
:10062000310561F708B605FE03C081E08093020240
:10063000FF91EF91BF91AF919F918F914F913F911A
:100640002F910F900FBE0F901F901895FC01ED5E3B
:10065000FF4F0994979AE091FD01F091FE013496C5
:10066000F093FE01E093FD0141E08381823099F235
:10067000818192819BBD8ABD818192812CB53DB5DE
:10068000821B930B8035910548F0818192812CB5B6
:100690003DB5821B930B81389E4320F2000008B6C3
:1006A00005FCC3CFC5CFC39AD6CF959AD4CF949A21
:1006B000D2CF939AD0CF929ACECF9298949897987F
:1006C000CACF93989598C3988091FC0181110AC074
:1006D000E091FF01F0910002F093FE01E093FD0133
:1006E00040E096CF8091FB01811109C0EBEDF1E074
:1006F000F0930002E093FF011092FC01EDCFEBEBD1
:10070000F1E0F6CFCF93DF93EC018BEB91E0909388
:1007100000028093FF0121E02093FB019093FE01F2
:100720008093FD011092FC012093010210920202BD
:1007300080E2E0E6F0E0ABEBB1E001900D928A954B
:10074000E1F7198218821E821D821B861A861F8677
:10075000DF91CF910895F89493989598C398929AC1
:10076000979A949A1FBC1EBC89B7837C89BF1DBC15
:100770001CBC80E09AE69BBD8ABD8EB588608EBDAC
:100780008EB581608EBD89B7806189BF80E188BFE9
:1007900078940895DF92EF92FF920F931F93CF9377
:1007A000DF93CDB7DEB728970FB6F894DEBF0FBE44
:1007B000CDBF8E010F5F1F4F28E0F80111922A95DF
:1007C000E9F77C01F0E2EF0EF11CFC0140E050E0A3
:1007D000BA01DD24D39415C02081243039F1208161
:1007E000263051F121813281420F531F611D711D4D
:1007F0002081D801A20FB11DDC923496EE15FF05C1
:10080000F9F02081223041F72A812111E5CF80E0E3
:1008100028960FB6F894DEBF0FBECDBFDF91CF9103
:100820001F910F91FF90EF90DF9008952C8122236C
:1008300071F320812630B1F62E812111D3CFE7CF7D
:100840004A5A594261097109473D54416105710590
:10085000F0F6FC0120812111DACF948D81E09730F0
:10086000B1F6D6CFCF93DF932091FC0121111DC1AA
:100870001092930128E931E030939701209396017B
:1008800021E0209398012DE931E030939C012093E1
:100890009B0122E020939D0122EA31E03093A101E7
:1008A0002093A00123E02093A20127EA31E03093B6
:1008B000A6012093A50124E02093A7012CEA31E0B2
:1008C0003093AB012093AA0125E02093AC0121EBEA
:1008D00031E03093B0012093AF0126E02093B101C5
:1008E00026EB31E03093B5012093B4011092BA01A8
:1008F0001092B90127E02093B601FC0120813181DB
:1009000022953295307F3227207F32272034FEE334
:100910003F0708F0D3C0FC01338322832581368151
:1009200022953295307F3227207F32272034FEE314
:100930003F0708F0C0C0FC0130872783228533853C
:1009400022953295307F3227207F32272034FEE3F4
:100950003F0708F0B6C0FC01358724871092950147
:100960001092940140E65EE35093B8014093B701C2
:100970004281538150939A0140939901405E5F4FA9
:1009800050939F0140939E01478150855093A4014D
:100990004093A301405E5F4F5093A9014093A8018B
:1009A0003093AE012093AD01205E3F4F3093B301F1
:1009B0002093B201E0919601F091970170E060E020
:1009C000C3E9D1E018C013963C91139714962C916B
:1009D0001497BC83AB83A381B4811496FC93EE93EC
:1009E0001397338324836F5F71E06F5F663098F4F1
:1009F000EF01E32FF22FA381B4814181528111963F
:100A00002D913C91129724173507E8F23A2F2B2F9E
:100A10006F5F663068F37111CDCF2091FB0121111A
:100A200047C0CBEBD1E0188220E230E03A83298343
:100A300029813A81213C310508F446C029813A8157
:100A40002134314008F00CC121E02B833FC022E06B
:100A50002B8F0380F481E02D20812C8F2181328126
:100A6000241B350B3E8F2D8F2D8D3E8D2D8D3E8D74
:100A7000213C310508F0DEC022E02F8F4FB7F894FB
:100A800031E03093FC012091FB0123272093FB01EF
:100A90004FBFFC011786CE017DDE811106C000002C
:100AA000CE0178DE811101C00000DF91CF91089561
:100AB000CBEDD1E0B8CF2FE33EE33DCF2FE33EE3D4
:100AC0002ACF2FE33EE347CF22E02B83E09196012C
:100AD000F091970120812C83218132813E832D83E7
:100AE0006D817E812D813E81213C310548F02D8133
:100AF0003E812134314008F0B1C021E02F8302C093
:100B000022E02F830380F481E02D2081288721813A
:100B10003281261B370B3A87298749855A85460F2C
:100B2000571F29853A85213C310548F029853A85AA
:100B30002134314008F090C021E02B8702C022E030
:100B40002B870380F481E02D20812C872181328145
:100B5000241B350B3E872D872D853E85240F351FA1
:100B60004D855E85413C510548F04D855E8541349B
:100B7000514008F06FC041E04F8702C042E04F870C
:100B80000380F481E02D4081488B41815281421BDA
:100B9000530B5A8B498B49895A89420F531F298914
:100BA0003A89213C310548F029893A89213431407C
:100BB00008F04EC021E02B8B02C022E02B8B03807B
:100BC000F481E02D20812C8B21813281241B350B77
:100BD0003E8B2D8B2D893E89240F351F4D895E89D3
:100BE000413C510540F04D895E894134514070F5DA
:100BF00041E04F8B02C042E04F8B0380F481E02D37
:100C00004081488F41815281421B530B5A8F498F3B
:100C1000498D5A8D420F531F298D3A8D213C310544
:100C200008F415CF298D3A8D2134314068F421E044
:100C30002B8F0FCF2D8D3E8D2134314018F421E0C4
:100C40002F8F1CCF1F8E1ACF1B8E03CF1F8AD5CF9D
:100C50001B8AB5CF1F8694CF1B8673CF1F8252CFBE
:100C60001B8234CF9FB7F8948091FC019FBF0895F9
:100C700018BA80E385BB86E982BB8EE087BB14BAD5
:100C80008EEB81BBF894C19AC29815BC85B588607B
:100C900085BD85B5826085BD14BC87EC83BD12BC63
:100CA00089B7806889BF10928F01109290011092CD
:100CB00091011092920110928E0110928D0110926A
:100CC0008C0184E092E0F2D983E092E002CCD0DFA4
:100CD00083E092E00CDC882339F083E092E010DCC2
:100CE000BC0184E092E0B0DA84E092E0E0D9F0CF99
:100CF00084E092E0C7D983E092E0E9CB97FB072E2E
:100D000016F4009406D077FD08D03FD007FC05D03C
:100D10003EF4909581959F4F0895709561957F4F12
:100D20000895052E97FB16F400940FD057FD05D0BB
:100D300040D007FC02D046F408C05095409530954D
:100D400021953F4F4F4F5F4F089590958095709537
:100D500061957F4F8F4F9F4F0895A29FB001B39F22
:100D6000C001A39F01D0B29F700D811D1124911D60
:100D70000895F3DFB7FF0895821B930B0895B7FF23
:100D800040C03FD0821B930B0895AA1BBB1B51E1AF
:100D900007C0AA1FBB1FA617B70710F0A61BB70BEB
:100DA000881F991F5A95A9F780959095BC01CD0190
:100DB0000895A1E21A2EAA1BBB1BFD010DC0AA1F9C
:100DC000BB1FEE1FFF1FA217B307E407F50720F0B4
:100DD000A21BB30BE40BF50B661F771F881F991F2F
:100DE0001A9469F760957095809590959B01AC0178
:100DF000BD01CF010895EE0FFF1F0590F491E02D86
:100E00000994ABDFA59F900DB49F900DA49F800D1A
:0A0E1000911D11240895F894FFCFFE
:100E1A0000400600054006000640060003400600A2
:100E2A000440060001400600024006000740060092
:100E3A00808386898C8F9295989C9FA2A5A8ABAE39
:100E4A00B0B3B6B9BCBFC1C4C7C9CCCED1D3D5D84B
:100E5A00DADCDEE0E2E4E6E8EAECEDEFF0F2F3F504
:100E6A00F6F7F8F9FAFBFCFCFDFEFEFEFEFEFEFEBE
:100E7A00FEFEFEFEFEFEFEFEFDFCFCFBFAF9F8F7A6
:100E8A00F6F5F3F2F0EFEDECEAE8E6E4E2E0DEDCB8
:100E9A00DAD8D5D3D1CECCC9C7C4C1BFBCB9B6B3D1
:100EAA00B0AEABA8A5A29F9C9895928F8C89868399
:100EBA00807C797673706D6A6763605D5A575451A6
:100ECA004F4C494643403E3B383633312E2C2A2775
:100EDA002523211F1D1B1917151312100F0D0C0A9C
:100EEA0009080706050403030201010101010101C2
:100EFA0001010101010101010203030405060708BA
:100F0A00090A0C0D0F1012131517191B1D1F212387
:100F1A0025272A2C2E313336383B3E404346494C4E
:100F2A004F5154575A5D6063676A6D707376797C66
:00000001FF
