:1000000013C037C036C035C034C033C042C131C060
:1000100030C018C12EC02DC02CC02BC02AC029C092
:1000200028C027C026C00D0311241FBECFE5D4E091
:10003000DEBFCDBF11E0A0E6B0E0E0EAF6E002C02E
:1000400005900D92A038B107D9F721E0A0E8B1E002
:1000500001C01D92AC3EB207E1F710E0C8E2D0E06B
:1000600003C02297FE0116D3C632D107D1F7D1D2F1
:1000700015C3C6CFCF93DF93EC01AED11A8A88EEB9
:1000800093E09C8B8B8B1D8A1E8A1F8A188E198E7B
:100090001A8EDF91CF910895C6C1CF92DF92EF9271
:1000A000FF92CF93DF93EC016115710571F1798BAC
:1000B000688BDB0120E938E547E150E0DFD220E63C
:1000C0003AEE40E050E0ACD269017A01CA01B901D0
:1000D00028EE33E040E050E0A3D22A8BA8EEB3E054
:1000E000CDD2A7019601261B370B480B590B60E1B7
:1000F00077E280E090E094D23C8B2B8BDF91CF9124
:10010000FF90EF90DF90CF9008951C8A1B8A1A8A87
:10011000DF91CF91FF90EF90DF90CF900895CF9334
:10012000DF93FC01828D680F628FC62FD0E0C0582C
:10013000DF4F4881C5E5C60FD0E0C058DF4F2881AA
:100140006655A62FB0E0A058BF4F8C9196EA499F04
:10015000A00111240024440F551F001C440F551FFB
:10016000001C452F502D5183408396EA299F900112
:1001700011240024220F331F001C220F331F001CE8
:10018000232F302D3683258326EA829FC001112438
:100190000024880F991F001C880F991F001C892FAD
:1001A000902D9387828781E08787CF01DF91CF9160
:1001B00059C1CF92DF92EF92FF920F931F93CF938B
:1001C000DF93EC018F8581113AC00B891C890115E1
:1001D0001105A1F41D8ACE01B0D1811106C06D892F
:1001E0008A89680FCE019BDF1D8ADF91CF911F9115
:1001F0000F91FF90EF90DF90CF9008954091800194
:10020000509181016091820170918301CE88DF88D5
:10021000E88CF98CDB01CA018C199D09AE09BF0974
:1002200020E030E080179107A207B307A0F24E8BC1
:100230005F8B688F798F8D898F5F8D8BCCCFCE014F
:1002400011D1C3CF1F920F920FB60F9211248F932B
:100250009F93AF93BF938BE382BF80918001909176
:100260008101A0918201B09183010196A11DB11D70
:100270008093800190938101A0938201B0938301C8
:10028000BF91AF919F918F910F900FBE0F901F90D4
:1002900018951F920F920FB60F9211242F933F9330
:1002A0004F935F936F937F938F939F93EF93FF93FE
:1002B00080E89EE39BBD8ABDAB988091CA018823EC
:1002C00009F449C08AE090E061E040E85EE370E153
:1002D000E091C601F091C70120812081213009F40D
:1002E00065C008F45AC0223009F444C02330A9F490
:1002F000218132812091C501222309F460C020911F
:10030000C401222309F465C0E4E8F1E0F093C901D7
:10031000E093C8011092C50156C01092CA01611144
:1003200035C02381223081F0218132813BBD2ABD3D
:100330002381222379F008B604FC03C008B604FE2A
:10034000FDCF5BBD4ABD78BF1DBC1CBC01970097AB
:1003500009F0BECFAB9AFF91EF919F918F917F9162
:100360006F915F914F913F912F910F900FBE0F9022
:100370001F901895C29A95982AE02A95F1F700C027
:10038000949AC198E091C601F091C7013496F09318
:10039000C701E093C60161E0C4CFC19A93982AE0F7
:1003A0002A95F1F700C0959A9298ECCF929A94987A
:1003B0002AE02A95F1F700C0939AC298E3CFE09122
:1003C000C801F091C901F093C701E093C60160E054
:1003D000A8CFE4EAF1E09ACFCF93DF93EC0184E871
:1003E00091E09093C9018093C80121E02093C4015A
:1003F0009093C7018093C6011092C5012093CA0152
:1004000080E2E0E6F0E0A4E8B1E001900D928A9588
:10041000E1F7198218821E821D821B861A861F86AA
:10042000DF91CF910895F894939894989598929A23
:10043000C19AC29A1FBC1EBC89B7837C89BF1DBCF0
:100440001CBC80E09AE69BBD8ABD8EB588608EBDDF
:100450008EB581608EBD89B7806189BF80E188BF1C
:1004600078940895CF93DF93EC018091C5018111B9
:100470005CC0FE0140E050E0208131812295329540
:10048000307F3227207F322720348EE3380710F068
:100490002FE33EE3338322834F5F5F4F3596433034
:1004A000510551F78091C401811142C0E4E8F1E0A7
:1004B0002C853D858A819B81280F391F80E89EE32A
:1004C000821B930B2F813885821B930B9283818330
:1004D000DE0140E061E052E00CC0538334964F5F90
:1004E0004430B9F012962D913C91139732832183B9
:1004F0001596408321813281213C310570F3818141
:10050000928181349140B8F4638334964F5F4430D4
:1005100049F72FB7F89491E09093C5018091C401F9
:1005200089278093C4012FBF1F86DF91CF91089543
:10053000E4EAF1E0BDCF1382D1CF9FB7F894809168
:10054000C5019FBF089586E088BB90E395BB82BB41
:1005500087BB8CE084BB8EE381BBF894AB9AAA98EE
:1005600082E083BF8BE382BF89B7816089BF81ED61
:1005700091E092CD0F931F93809180019091810122
:10058000A0918201B09183014091CD015091CE01A3
:100590006091CF017091D0018C019D01041B150B5E
:1005A000260B370BB901A80140325E446105710585
:1005B00018F18093CD019093CE01A093CF01B09319
:1005C000D0014091CB015091CC014A305105C8F087
:1005D0009A01ADECBCEC46D096958795969587959B
:1005E00096958795840F951F9093CC018093CB01AE
:1005F000BC0181ED91E051DD81ED91E01F910F9102
:10060000D8CD4F5F5F4F5093CC014093CB01BA01DF
:10061000F0CF99DFAFDFAEDFFDCF81ED91E02ACDE6
:10062000A1E21A2EAA1BBB1BFD010DC0AA1FBB1FF6
:10063000EE1FFF1FA217B307E407F50720F0A21B68
:10064000B30BE40BF50B661F771F881F991F1A94D5
:1006500069F760957095809590959B01AC01BD01FF
:10066000CF010895A29FB001B39FC001A39F01D005
:10067000B29F700D811D1124911D0895F3DFA59F78
:10068000900DB49F900DA49F800D911D112408958D
:10069000EE0FFF1F0590F491E02D0994F894FFCF21
:1006A000004006000140060002400600034006002C
:1006B000000000000000000000000000000000003A
:1006C000808386898C8F9295989B9EA2A5A7AAADC0
:1006D000B0B3B6B9BCBEC1C4C6C9CBCED0D3D5D7D2
:1006E000DADCDEE0E2E4E6E8EAEBEDEEF0F1F3F48A
:1006F000F5F6F8F9FAFAFBFCFDFDFEFEFEFFFFFF42
:10070000FFFFFFFFFEFEFEFDFDFCFBFAFAF9F8F627
:10071000F5F4F3F1F0EEEDEBEAE8E6E4E2E0DEDC3E
:10072000DAD7D5D3D0CECBC9C6C4C1BEBCB9B6B357
:10073000B0ADAAA7A5A29E9B9895928F8C8986831F
:10074000807C797673706D6A6764615D5A58555222
:100750004F4C494643413E3B393634312F2C2A28F1
:100760002523211F1D1B1917151412110F0E0C0B19
:100770000A09070605050403020201010100000041
:10078000000000000101010202030405050607093B
:100790000A0B0C0E0F1112141517191B1D1F212304
:1007A00025282A2C2F313436393B3E414346494CCB
:1007B0004F5255585A5D6164676A6D707376797CE3
:00000001FF
