:100000001BC03FC03EC03DC03CC0D2C47DC139C052
:1000100038C03EC136C035C034C033C032C031C034
:1000200030C02FC02EC0E5C1E2C1DFC1DCC1D9C1E3
:10003000B0C1D5C1E2C1A90511241FBECFE5D4E0EE
:10004000DEBFCDBF11E0A0E6B0E0E6E7FCE002C015
:1000500005900D92A038B107D9F722E0A0E8B1E0F1
:1000600001C01D92AE31B207E1F710E0C8E3D0E065
:1000700003C02297FE01EFD5C633D107D1F71AD5B9
:10008000F8C5BECFCF93DF93EC01D8D11A8A88EEA2
:1000900093E09C8B8B8B1D8A1E8A1F8A188E198E6B
:1000A0001A8EDF91CF910895F0C1CF92DF92EF9237
:1000B000FF920F931F93CF93DF93EC018F858111F4
:1000C0008BC00B891C890115110571F41D8ACE01A5
:1000D00069D48823A9F1DF91CF911F910F91FF90EF
:1000E000EF90DF90CF9008952091810130918201AF
:1000F0003695279536952795ABE7B4E15CD596956F
:100100008795AC0160E070E08E899F89A88DB98DDC
:100110006A017B01C81AD90AEA0AFB0A20E030E02A
:10012000C016D106E206F30690F24E8B5F8B688F05
:10013000798F8D898F5F8D8BCE0134D48111CBCF98
:100140008A899D89890F9B8DEA8D911148C0E80F9E
:10015000EA8FAE2FB0E0A058BF4F4C91A5E5AE0F8F
:10016000B0E0A058BF4F2C91E655F0E0E058FF4FAB
:1001700080819AEF499FA00111240024440F551F4C
:10018000001C440F551F001C452F502D59834883D8
:100190009AEF299F900111240024220F331F001C85
:1001A000220F331F001C232F302D3E832D832AEF77
:1001B000829FC00111240024880F991F001C880F02
:1001C000991F001C892F902D9B878A8781E08F873C
:1001D000CE01E2D11D8A7FCFCE01DED172CFE81BE6
:1001E000EA8FB7CFCF92DF92EF92FF92CF93DF9358
:1001F000EC0161157105B9F177FD3FC01B8E798B5C
:10020000688BDB0177FD40C028EA3CE34BE150E01E
:10021000E4D420E63AEE40E050E0B1D469017A013E
:10022000CA01B90128EE33E040E050E0A8D42A8B9F
:10023000A22FBB27A7FDB09528EE33E0C8D4A701B5
:100240009601261B370B480B590B60E177E280E0E3
:1002500090E095D43C8B2B8BDF91CF91FF90EF906A
:10026000DF90CF9008951C8A1B8A1A8ADF91CF9164
:10027000FF90EF90DF90CF90089581E08B8F798B86
:10028000688BDB0177FFC0CFB195A195B109BCCFD9
:100290001F920F920FB60F9211248F939F93AF93DB
:1002A000BF9382B7875C82BF809181019091820168
:1002B0008C599F4F9093820180938101809180019E
:1002C0008F5F8A30F0F010928001809183019091CD
:1002D0008401A0918501B09186010196A11DB11DF7
:1002E0008093830190938401A0938501B09386014C
:1002F000BF91AF919F918F910F900FBE0F901F9064
:10030000189580938001F4CF1F920F920FB60F9231
:1003100011242F933F934F938F939F93AF93BF934A
:10032000EF93FF9380E89EE39BBD8ABDAB988091DD
:10033000F5018823E1F0E091F101F091F2012AE06A
:1003400030E041E08081808190E088309105E8F0E4
:100350001092F50141111EC08381823041F51DBC10
:100360001CBC215031092115310561F7AB9AFF9171
:10037000EF91BF91AF919F918F914F913F912F91AD
:100380000F900FBE0F901F901895FC01ED5EFF4F70
:100390000994C19AE091F101F091F2013496F09341
:1003A000F201E093F10141E083818230C1F2818169
:1003B00092819BBD8ABD818192812CB53DB5821B06
:1003C000930B8035910548F0818192812CB53DB524
:1003D000821B930B81389E4348F20000C7CF959A49
:1003E000D9CF949AD7CFC29AD5CF939AD3CF929A96
:1003F000D1CF9298C298C198CDCF93989498959860
:100400008091F00181110AC0E091F301F091F401B3
:10041000F093F201E093F10140E09ECF8091EF0173
:10042000811109C0EFECF1E0F093F401E093F301E6
:100430001092F001EDCFEFEAF1E0F6CFCF93DF932A
:10044000EC018FEA91E09093F4018093F30121E0B5
:100450002093EF019093F2018093F1011092F0014B
:100460002093F50180E2E0E6F0E0AFEAB1E0019030
:100470000D928A95E1F7198218821E821D821B86D1
:100480001A861F86DF91CF910895F89493989498D7
:100490009598929AC19AC29A1FBC1EBC89B7837C58
:1004A00089BF1DBC1CBC80E09AE69BBD8ABD8EB591
:1004B00088608EBD8EB581608EBD89B7806189BF31
:1004C00080E188BF78940895DF92EF92FF920F93B6
:1004D0001F93CF93DF93CDB7DEB728970FB6F8946D
:1004E000DEBF0FBECDBF8E010F5F1F4F28E0F801AA
:1004F00011922A95E9F77C01F0E2EF0EF11CFC0164
:1005000040E050E0BA01DD24D39415C020812430AE
:1005100039F12081263051F121813281420F531F60
:10052000611D711D2081D801A20FB11DDC9234968E
:10053000EE15FF05F9F02081223041F72A812111C3
:10054000E5CF80E028960FB6F894DEBF0FBECDBF92
:10055000DF91CF911F910F91FF90EF90DF90089561
:100560002C81222371F320812630B1F62E812111B6
:10057000D3CFE7CF4A5A594261097109473D5441E7
:1005800061057105F0F6FC0120812111DACF948D0F
:1005900081E09730B1F6D6CFCF93DF932091F00171
:1005A000211121C1109287012CE831E030938B0199
:1005B00020938A0121E020938C0121E931E03093DE
:1005C000900120938F0122E02093910126E931E0F0
:1005D000309395012093940123E0209396012BE919
:1005E00031E030939A012093990124E020939B01FC
:1005F00020EA31E030939F0120939E0125E0209373
:10060000A00125EA31E03093A4012093A30126E064
:100610002093A5012AEA31E03093A9012093A80193
:100620001092AE011092AD0127E02093AA01FC01C7
:100630002081318122953295307F3227207F3227E9
:100640002034FEE33F0708F0D7C0FC013383228348
:100650002581368122953295307F3227207F3227BF
:100660002034FEE33F0708F0C4C0FC013087278335
:100670002285338522953295307F3227207F32279D
:100680002034FEE33F0708F0BAC0FC013587248719
:10069000109289011092880140E65EE35093AC010C
:1006A0004093AB014281538150938E0140938D0161
:1006B000405E5F4F50939301409392014781508574
:1006C0005093980140939701405E5F4F50939D0176
:1006D00040939C013093A2012093A101205E3F4FE3
:1006E0003093A7012093A601E0918A01F0918B013C
:1006F00070E060E0C7E8D1E018C013963C91139712
:1007000014962C911497BC83AB83A381B481149667
:10071000FC93EE931397338324836F5F71E06F5FD5
:10072000663098F4EF01E32FF22FA381B481418169
:10073000528111962D913C91129724173507E8F2BA
:100740003A2F2B2F6F5F663068F37111CDCF209158
:10075000EF0121114BC0CFEAD1E0188220E230E056
:100760003A83298329813A81213C310508F44AC022
:1007700029813A812134314008F012C121E02B83D4
:1007800043C042E04B8F498D5A8D0380F481E02DA8
:1007900060816C8F420F531F21813281241B350BE6
:1007A0003E8F2D8F2D8D3E8D213C310508F0E2C00E
:1007B00022E02F8F2D8D3E8D4FB7F89431E030938E
:1007C000F0012091EF0123272093EF014FBFFC019F
:1007D0001786CE0179DE811106C00000CE0174DEDD
:1007E000811101C00000DF91CF910895CFECD1E0DD
:1007F000B4CF2FE33EE339CF2FE33EE326CF2FE301
:100800003EE343CF22E02B8349815A81E0918A0164
:10081000F0918B0120812C8321813281241B350BA7
:100820003E832D832D813E81213C310548F02D8171
:100830003E812134314008F0B1C021E02F8302C055
:1008400022E02F832D813E81240F351F0380F48108
:10085000E02D4081488741815281421B530B5A87CA
:10086000498749855A85413C510548F049855A8553
:100870004134514008F090C041E04B8702C042E053
:100880004B8749855A85420F531F0380F481E02D21
:1008900020812C8721813281241B350B3E872D87B7
:1008A0002D853E85213C310548F02D853E8521343E
:1008B000314008F06FC021E02F8702C022E02F876F
:1008C0002D853E85240F351F0380F481E02D408166
:1008D000488B41815281421B530B5A8B498B49896A
:1008E0005A89413C510548F049895A89413451405F
:1008F00008F04EC041E04B8B02C042E04B8B49896F
:100900005A89420F531F0380F481E02D20812C8BE4
:1009100021813281241B350B3E8B2D8B2D893E8905
:10092000213C310540F02D893E892134314070F55C
:1009300021E02F8B02C022E02F8B2D893E89240FCE
:10094000351F0380F481E02D4081488F4181528121
:10095000421B530B5A8F498F498D5A8D413C51058B
:1009600008F40FCF498D5A8D4134514068F441E06D
:100970004B8F09CF2D8D3E8D2134314018F421E06D
:100980002F8F18CF1F8E16CF1B8EFDCE1F8AD5CF6F
:100990001B8AB5CF1F8694CF1B8673CF1F8252CF81
:1009A0001B8232CF9FB7F8948091F0019FBF0895CA
:1009B0001F920F920FB60F9211242F933F938F9394
:1009C0009F93CF93DF9300D0CDB7DEB722B730E04F
:1009D000C901CB9797FD39C09595879520918101E5
:1009E00030918201820F931F9A8389838091000244
:1009F000811112C08091010281111BC089819A81ED
:100A00009093FF018093FE0181E080930002809328
:100A100001028EB580648EBD0F900F90DF91CF9153
:100A20009F918F913F912F910F900FBE0F901F902C
:100A3000189589819A819093FD018093FC018EB570
:100A40008F7B8EBD10920102E7CF0196C5CF86E065
:100A500088BB90E395BB82BB87BB8CE084BB8EE3F5
:100A600081BBF894AB9AAA9882E083BF8BE382BFE4
:100A700089B7816089BF109283011092840110921E
:100A800085011092860110928201109281011092CC
:100A9000800182E092E008DB1092000281E0809306
:100AA0000102B898C0988EB580648EBD89B7806207
:100AB00089BF0895CCDFCAE0D0E08091000288238E
:100AC00009F443C02091FE013091FF018091FC01A7
:100AD0009091FD01281B390B109200022C3D45E03E
:100AE000340709F000008091FA019091FB0128176A
:100AF000390759F1C901895E9340873E934028F533
:100B0000A9014C5D5548440F551F5093F90140937E
:100B1000F8016091F6017091F701CB01880F991FE0
:100B2000880F991F880F991F860F971F840F951F95
:100B3000BE0112D07093F7016093F6013093FB0170
:100B40002093FA0182E092E04DDB82E092E0ADDAA0
:100B5000B4CF82E092E096CA97FB072E16F4009479
:100B600006D077FD08D03FD007FC05D03EF4909525
:100B700081959F4F0895709561957F4F0895052E3B
:100B800097FB16F400940FD057FD05D040D007FC1A
:100B900002D046F408C050954095309521953F4FBE
:100BA0004F4F5F4F089590958095709561957F4F59
:100BB0008F4F9F4F0895A29FB001B39FC001A39F85
:100BC00001D0B29F700D811D1124911D0895F3DF96
:100BD000B7FF0895821B930B0895B7FF40C03FD025
:100BE000821B930B0895AA1BBB1B51E107C0AA1FD0
:100BF000BB1FA617B70710F0A61BB70B881F991FBE
:100C00005A95A9F780959095BC01CD010895A1E270
:100C10001A2EAA1BBB1BFD010DC0AA1FBB1FEE1F76
:100C2000FF1FA217B307E407F50720F0A21BB30BC1
:100C3000E40BF50B661F771F881F991F1A9469F73D
:100C400060957095809590959B01AC01BD01CF0199
:100C50000895EE0FFF1F0590F491E02D0994ABDF8E
:100C6000A59F900DB49F900DA49F800D911D112400
:060C70000895F894FFCF87
:100C76000040060005400600064006000340060048
:100C86000440060001400600024006000740060038
:100C9600808386898C8F9295989C9FA2A5A8ABAEDF
:100CA600B0B3B6B9BCBFC1C4C7C9CCCED1D3D5D8F1
:100CB600DADCDEE0E2E4E6E8EAECEDEFF0F2F3F5AA
:100CC600F6F7F8F9FAFBFCFCFDFEFEFEFEFEFEFE64
:100CD600FEFEFEFEFEFEFEFEFDFCFCFBFAF9F8F74C
:100CE600F6F5F3F2F0EFEDECEAE8E6E4E2E0DEDC5E
:100CF600DAD8D5D3D1CECCC9C7C4C1BFBCB9B6B377
:100D0600B0AEABA8A5A29F9C9895928F8C8986833E
:100D1600807C797673706D6A6763605D5A5754514B
:100D26004F4C494643403E3B383633312E2C2A271A
:100D36002523211F1D1B1917151312100F0D0C0A41
:100D46000908070605040303020101010101010167
:100D5600010101010101010102030304050607085F
:100D6600090A0C0D0F1012131517191B1D1F21232D
:100D760025272A2C2E313336383B3E404346494CF4
:100D86004F5154575A5D6063676A6D707376797C0C
:00000001FF
