:100000001BC03FC03EC03DC03CC03BC02BC139C03F
:1000100038C001C136C035C034C033C032C031C071
:1000200030C02FC02EC0A5C191C18EC18BC188C167
:1000300085C17BC18DC1EB0411241FBECFE5D4E087
:10004000DEBFCDBF11E0A0E6B0E0ECE5FAE002C013
:1000500005900D92A038B107D9F722E0A0E8B1E0F1
:1000600001C01D92A431B207E1F710E0C8E3D0E06F
:1000700003C02297FE01ECD4C633D107D1F75ED47A
:10008000EBC4BECFCF93DF93EC0187D11A8A88EE01
:1000900093E09C8B8B8B1D8A1E8A1F8A188E198E6B
:1000A0001A8EDF91CF9108959FC1CF92DF92EF9288
:1000B000FF920F931F93CF93DF93EC018F858111F4
:1000C00065C00B891C8901151105F1F51D8ACE014A
:1000D00018D4811130C0ED898A89E80F8A8DE80F24
:1000E000EA8FAE2FB0E0A058BF4F4C91A5E5AE0F00
:1000F000B0E0A058BF4F2C91E655F0E0E058FF4F1C
:10010000808150E0440F551F440F551F5983488389
:1001100030E0220F331F220F331F3E832D8390E0E8
:10012000880F991F880F991F9B878A8781E08F8787
:10013000CE01E1D11D8ADF91CF911F910F91FF90E8
:10014000EF90DF90CF900895409180015091810110
:1001500060918201709183018E899F89A88DB98DEC
:100160006A017B01C81AD90AEA0AFB0A20E030E0DA
:10017000C016D106E206F30608F4A9CF4E8B5F8BBA
:10018000688F798F8D898F5F8D8BA1CFCE01B3D191
:1001900098CFCF92DF92EF92FF92CF93DF93EC0153
:1001A0006115710571F1798B688BDB0120E938E508
:1001B00047E150E041D420E63AEE40E050E00ED472
:1001C00069017A01CA01B90128EE33E040E050E04C
:1001D00005D42A8BA8EEB3E02FD4A7019601261BE5
:1001E000370B480B590B60E177E280E090E0F6D3E3
:1001F0003C8B2B8BDF91CF91FF90EF90DF90CF90D6
:1002000008951C8A1B8A1A8ADF91CF91FF90EF9084
:10021000DF90CF9008951F920F920FB60F92112486
:100220008F939F93AF93BF938BE382BF80918001A5
:1002300090918101A0918201B09183010196A11D4D
:10024000B11D8093800190938101A0938201B093AE
:100250008301BF91AF919F918F910F900FBE0F902F
:100260001F9018951F920F920FB60F9211242F9383
:100270003F934F935F936F937F938F939F93AF932E
:10028000BF93CF93DF93EF93FF9380E89EE39BBDF3
:100290008ABDAB988091F201882381F12AE030E099
:1002A00061E040E85EE370E1C091EE01D091EF01C2
:1002B000FE018881888190E08830910590F110924C
:1002C000F201611133C08381823081F0818192819A
:1002D0009BBD8ABD8381882381F008B604FC03C0DE
:1002E00008B604FEFDCF5BBD4ABD78BF1DBC1CBC7B
:1002F0002150310921153105B9F6AB9AFF91EF91E3
:10030000DF91CF91BF91AF919F918F917F916F912D
:100310005F914F913F912F910F900FBE0F901F90C3
:100320001895FC01ED5EFF4F0994959AFE013496F5
:10033000F093EF01E093EE0161E0C5CFC19AF6CFF3
:10034000949AF4CFC29AF2CF939AF0CF929AEECFCA
:100350009398949895988091ED0181110EC0E09149
:10036000F001F091F101F093EF01E093EE0160E014
:10037000AACF9298C298C198D9CF8091EC018111EF
:1003800009C0ECECF1E0F093F101E093F001109280
:10039000ED01E9CFECEAF1E0F6CFCF93DF93EC018A
:1003A0008CEA91E09093F1018093F00121E0209399
:1003B000EC019093EF018093EE011092ED012093F8
:1003C000F20180E2E0E6F0E0ACEAB1E001900D92EB
:1003D0008A95E1F7198218821E821D821B861A8671
:1003E0001F86DF91CF910895F894939894989598EB
:1003F000929AC19AC29A1FBC1EBC89B7837C89BFDE
:100400001DBC1CBC80E09AE69BBD8ABD8EB5886091
:100410008EBD8EB581608EBD89B7806189BF80E158
:1004200088BF78940895DF92EF92FF920F931F9305
:10043000CF93DF93CDB7DEB728970FB6F894DEBF22
:100440000FBECDBF8E010F5F1F4F28E0F801119244
:100450002A95E9F77C01F0E2EF0EF11CFC0140E087
:1004600050E0BA01DD24D39415C02081243039F145
:100470002081263051F121813281420F531F611DAD
:10048000711D2081D801A20FB11DDC923496EE15AA
:10049000FF05F9F02081223041F72A812111E5CFB3
:1004A00080E028960FB6F894DEBF0FBECDBFDF9177
:1004B000CF911F910F91FF90EF90DF9008952C81C5
:1004C000222371F320812630B1F62E812111D3CF62
:1004D000E7CF4A5A594261097109473D54416105C4
:1004E0007105F0F6FC0120812111DACF948D81E0B5
:1004F0009730B1F6D6CFCF93DF932091ED01211144
:1005000021C11092840129E831E0309388012093C1
:10051000870121E0209389012EE831E030938D019D
:1005200020938C0122E020938E0123E931E0309367
:1005300092012093910123E02093930128E931E077
:10054000309397012093960124E0209398012DE9A0
:1005500031E030939C0120939B0125E020939D0185
:1005600022EA31E03093A1012093A00126E02093FC
:10057000A20127EA31E03093A6012093A501109251
:10058000AB011092AA0127E02093A701FC01408152
:1005900051816FE0649F9001659F300D11242034DC
:1005A000FEE33F0708F0D7C0FC0133832283458177
:1005B00056816FE0649F9001659F300D11242034B7
:1005C000FEE33F0708F0C4C0FC0130872783428563
:1005D00053856FE0649F9001659F300D1124203496
:1005E000FEE33F0708F0BAC0FC013587248710926C
:1005F00086011092850140E65EE35093A901409385
:10060000A8014281538150938B0140938A01405E3F
:100610005F4F5093900140938F01478150855093D5
:10062000950140939401405E5F4F50939A0140932F
:10063000990130939F0120939E01205E3F4F30939C
:10064000A4012093A301E0918701F091880170E05B
:1006500060E0C4E8D1E018C013963C91139714965B
:100660002C911497BC83AB83A381B4811496FC9323
:10067000EE931397338324836F5F71E06F5F66306F
:1006800098F4EF01E32FF22FA381B48141815281CD
:1006900011962D913C91129724173507E8F23A2FC5
:1006A0002B2F6F5F663068F37111CDCF2091EC0175
:1006B00021114BC0CCEAD1E0188220E230E03A832D
:1006C000298329813A81213C310508F44AC02981D6
:1006D0003A812134314008F012C121E02B8343C01C
:1006E00042E04B8F498D5A8D0380F481E02D60816B
:1006F0006C8F420F531F21813281241B350B3E8F9B
:100700002D8F2D8D3E8D213C310508F0E2C022E079
:100710002F8F2D8D3E8D4FB7F89431E03093ED0142
:100720002091EC0123272093EC014FBFFC01178699
:10073000CE0179DE811106C00000CE0174DE811188
:1007400001C00000DF91CF910895CCECD1E0B4CF8F
:100750002FE33EE339CF2FE33EE326CF2FE33EE303
:1007600043CF22E02B8349815A81E0918701F091A8
:10077000880120812C8321813281241B350B3E830B
:100780002D832D813E81213C310548F02D813E8114
:100790002134314008F0B1C021E02F8302C022E0B3
:1007A0002F832D813E81240F351F0380F481E02D9E
:1007B0004081488741815281421B530B5A874987A8
:1007C00049855A85413C510548F049855A8541344F
:1007D000514008F090C041E04B8702C042E04B8797
:1007E00049855A85420F531F0380F481E02D2081F3
:1007F0002C8721813281241B350B3E872D872D8547
:100800003E85213C310548F02D853E85213431401F
:1008100008F06FC021E02F8702C022E02F872D85CE
:100820003E85240F351F0380F481E02D4081488BE5
:1008300041815281421B530B5A8B498B49895A89FA
:10084000413C510548F049895A894134514008F0EA
:100850004EC041E04B8B02C042E04B8B49895A8924
:10086000420F531F0380F481E02D20812C8B2181C6
:100870003281241B350B3E8B2D8B2D893E89213CEB
:10088000310540F02D893E892134314070F521E059
:100890002F8B02C022E02F8B2D893E89240F351F1C
:1008A0000380F481E02D4081488F41815281421BB9
:1008B000530B5A8F498F498D5A8D413C510508F48D
:1008C0000FCF498D5A8D4134514068F441E04B8F30
:1008D00009CF2D8D3E8D2134314018F421E02F8F2A
:1008E00018CF1F8E16CF1B8EFDCE1F8AD5CF1B8A29
:1008F000B5CF1F8694CF1B8673CF1F8252CF1B822A
:1009000032CF9FB7F8948091ED019FBF089586E0A4
:1009100088BB90E395BB82BB87BB8CE084BB8EE336
:1009200081BBF894AB9AAA9882E083BF8BE382BF25
:1009300089B7816089BF89EF91E0B6CBE8DF0DC050
:100940004F5F5F4F5093F4014093F301BA0189EF79
:1009500091E01FDC89EF91E0A8DB8091800190910C
:100960008101A0918201B09183014091F5015091E4
:10097000F6016091F7017091F8018C019D01041B53
:10098000150B260B370BB901A80140325E446105F7
:10099000710500F38093F5019093F601A093F701A0
:1009A000B093F8014091F3015091F4014A305105A0
:1009B00038F29A01ADECBCEC33D0969587959695BC
:1009C000879596958795840F951F9093F401809352
:1009D000F301BC01BCCF89EF91E054CBA1E21A2E08
:1009E000AA1BBB1BFD010DC0AA1FBB1FEE1FFF1FD3
:1009F000A217B307E407F50720F0A21BB30BE40B23
:100A0000F50B661F771F881F991F1A9469F7609569
:100A10007095809590959B01AC01BD01CF01089523
:100A2000A29FB001B39FC001A39F01D0B29F700DE0
:100A3000811D1124911D0895F3DFA59F900DB49F92
:100A4000900DA49F800D911D11240895EE0FFF1F9E
:0C0A50000590F491E02D0994F894FFCF7C
:100A5C000040060005400600064006000340060064
:100A6C000440060001400600024006000740060054
:100A7C00808386898C8F9295989C9FA2A5A8ABAEFB
:100A8C00B0B3B6B9BCBFC1C4C7C9CCCED1D3D5D80D
:100A9C00DADCDEE0E2E4E6E8EAECEDEFF0F2F3F5C6
:100AAC00F6F7F8F9FAFBFCFCFDFEFEFEFEFEFEFE80
:100ABC00FEFEFEFEFEFEFEFEFDFCFCFBFAF9F8F768
:100ACC00F6F5F3F2F0EFEDECEAE8E6E4E2E0DEDC7A
:100ADC00DAD8D5D3D1CECCC9C7C4C1BFBCB9B6B393
:100AEC00B0AEABA8A5A29F9C9895928F8C8986835B
:100AFC00807C797673706D6A6763605D5A57545168
:100B0C004F4C494643403E3B383633312E2C2A2736
:100B1C002523211F1D1B1917151312100F0D0C0A5D
:100B2C000908070605040303020101010101010183
:100B3C00010101010101010102030304050607087B
:100B4C00090A0C0D0F1012131517191B1D1F212349
:100B5C0025272A2C2E313336383B3E404346494C10
:100B6C004F5154575A5D6063676A6D707376797C28
:00000001FF
