:100000001BC03FC03EC070C13CC004C5A6C139C0C2
:1000100038C037C036C035C034C033C032C031C03C
:1000200030C02FC02EC016C213C210C20DC20AC2E9
:10003000DEC106C213C24C0611241FBECFE5D4E0B8
:10004000DEBFCDBF11E0A0E6B0E0ECEBFDE002C00A
:1000500005900D92A038B107D9F722E0A0E8B1E0F1
:1000600001C01D92A032B207E1F710E0C8E3D0E072
:1000700003C02297FE0192D6C633D107D1F75CD5D3
:100080009BC6BECFCF93DF93EC0109D21A8A88EECC
:1000900093E09C8B8B8B1D8A1E8A1F8A188E198E6B
:1000A0001A8E84E08B8FDF91CF91089521C2AF9299
:1000B000BF92CF92DF92EF92FF920F931F93CF9355
:1000C000DF9300D0CDB7DEB77C01DC011F968C91A9
:1000D0008111ABC089B78F7789BF809181019091E1
:1000E00082019A83898389B7806889BF29813A818F
:1000F000F701038914890115110591F4158AC701C7
:100100007ED48823B1F10F900F90DF91CF911F9192
:100110000F91FF90EF90DF90CF90BF90AF90089538
:100120003695279536952795ABE7B4E1E7D59695B3
:100130008795AC0160E070E0F70186899789A08D12
:10014000B18D5A016B01A81AB90ACA0ADB0A20E06C
:1001500030E0A016B106C206D30688F2468B578B54
:10016000608F718F85898F5F858BC70148D481111E
:10017000CACFF70182899589890F948D911158C052
:10018000D701E28DE80F5A96EC93D7015B966C91FC
:10019000BEE36B9FB0011124A5E5AE0FB0E0A058FF
:1001A000BF4F8C91869F9001879F300D11240024B2
:1001B000220F331F001C220F331F001C232F302D52
:1001C000AAEAAE0FB0E0A058BF4F4C91469FC001C5
:1001D000479F900D11240024880F991F001C880F41
:1001E000991F001C892F902DF0E0E058FF4FE0810F
:1001F000E69FA001E79F500D11240024440F551FD6
:10020000001C440F551F001C452F502DF701518332
:100210004083368325839387828781E08787C70160
:10022000EED1D70155961C926ECFC701E8D152CFBF
:10023000E28DE81BD7015A96EC93A7CFCF92DF92BD
:10024000EF92FF92CF93DF93EC0161157105B9F145
:1002500077FD3FC01C8E798B688BDB0177FD40C03A
:1002600028EA3CE34BE150E05BD520E63AEE40E083
:1002700050E028D569017A01CA01B90128EE33E0BE
:1002800040E050E01FD52A8BA22FBB27A7FDB095D9
:1002900028EE33E03FD5A7019601261B370B480B0C
:1002A000590B60E177E280E090E00CD53C8B2B8B22
:1002B000DF91CF91FF90EF90DF90CF9008951C8A4F
:1002C0001B8A1A8ADF91CF91FF90EF90DF90CF9039
:1002D000089581E08C8F798B688BDB0177FFC0CF2D
:1002E000B195A195B109BCCF1F920F920FB60F9295
:1002F00011248F939F93AF93BF938091810190912D
:1003000082018C599F4F909382018093810180914B
:1003100080018F5F8A30F0F010928001809183011C
:1003200090918401A0918501B09186010196A11D53
:10033000B11D8093830190938401A0938501B093B4
:100340008601BF91AF919F918F910F900FBE0F903B
:100350001F90189580938001F4CF1F920F920FB6D3
:100360000F9211242F933F934F938F939F93AF93AB
:10037000BF93EF93FF93789480E89EE39BBD8ABD83
:100380008091F501882309F1E091F101F091F201EA
:100390002AE030E041E08081808190E08830910562
:1003A00010F11092F501411123C08381823069F56B
:1003B0001DBC1CBC215031092115310561F708B65F
:1003C00005FE03C081E08093F601FF91EF91BF919C
:1003D000AF919F918F914F913F912F910F900FBEB1
:1003E0000F901F901895FC01ED5EFF4F0994C19A84
:1003F000E091F101F091F2013496F093F201E09373
:10040000F10141E08381823099F2818192819BBD2B
:100410008ABD818192812CB53DB5821B930B8035BD
:10042000910548F0818192812CB53DB5821B930BDB
:1004300081389E4320F2000008B605FCC3CFC5CF2B
:10044000959AD6CF949AD4CFC29AD2CF939AD0CF3E
:10045000929ACECF9298C298C198CACF9398949806
:1004600095988091F00181110AC0E091F301F0911B
:10047000F401F093F201E093F10140E096CF809116
:10048000EF01811109C0EFECF1E0F093F401E0938A
:10049000F3011092F001EDCFEFEAF1E0F6CFCF9348
:1004A000DF93EC018FEA91E09093F4018093F301E4
:1004B00021E02093EF019093F2018093F1011092DB
:1004C000F0012093F5011092F60180E2E0E6F0E001
:1004D000AFEAB1E001900D928A95E1F71982188296
:1004E0001E821D821B861A861F86DF91CF9108957A
:1004F000F894939894989598929AC19AC29A1FBC2E
:100500001EBC89B7837C89BF1DBC1CBC80E09AE6F9
:100510009BBD8ABD8EB588608EBD8EB581608EBD57
:1005200089B7806189BF80E188BF78940895DF92A0
:10053000EF92FF920F931F93CF93DF93CDB7DEB768
:1005400028970FB6F894DEBF0FBECDBF8E010F5FA8
:100550001F4F28E0F80111922A95E9F77C01F0E29B
:10056000EF0EF11CFC0140E050E0BA01DD24D39411
:1005700015C02081243039F12081263051F12181AC
:100580003281420F531F611D711D2081D801A20FBE
:10059000B11DDC923496EE15FF05F9F02081223072
:1005A00041F72A812111E5CF80E028960FB6F89413
:1005B000DEBF0FBECDBFDF91CF911F910F91FF9096
:1005C000EF90DF9008952C81222371F32081263053
:1005D000B1F62E812111D3CFE7CF4A5A5942610992
:1005E0007109473D544161057105F0F6FC01208118
:1005F0002111DACF948D81E09730B1F6D6CFCF9329
:10060000DF932091F00121111DC1109287012CE888
:1006100031E030938B0120938A0121E020938C01FB
:1006200021E931E03093900120938F0122E0209363
:10063000910126E931E0309395012093940123E064
:10064000209396012BE931E030939A012093990190
:1006500024E020939B0120EA31E030939F01209316
:100660009E0125E02093A00125EA31E03093A4010A
:100670002093A30126E02093A5012AEA31E03093DC
:10068000A9012093A8011092AE011092AD0127E0BC
:100690002093AA01FC012081318122953295307F7F
:1006A0003227207F32272034FEE33F0708F0D3C0F3
:1006B000FC01338322832581368122953295307F58
:1006C0003227207F32272034FEE33F0708F0C0C0E6
:1006D000FC01308727832285338522953295307F30
:1006E0003227207F32272034FEE33F0708F0B6C0D0
:1006F000FC0135872487109289011092880140E619
:100700005EE35093AC014093AB014281538150931F
:100710008E0140938D01405E5F4F50939301409353
:100720009201478150855093980140939701405E14
:100730005F4F50939D0140939C013093A201209301
:10074000A101205E3F4F3093A7012093A601E091C5
:100750008A01F0918B0170E060E0C7E8D1E018C039
:1007600013963C91139714962C911497BC83AB83EA
:10077000A381B4811496FC93EE931397338324835F
:100780006F5F71E06F5F663098F4EF01E32FF22F37
:10079000A381B4814181528111962D913C91129790
:1007A00024173507E8F23A2F2B2F6F5F663068F376
:1007B0007111CDCF2091EF01211147C0CFEAD1E0D7
:1007C000188220E230E03A83298329813A81213C52
:1007D000310508F446C029813A812134314008F0BE
:1007E0000CC121E02B833FC022E02B8F0380F481DA
:1007F000E02D20812C8F21813281241B350B3E8FEF
:100800002D8F2D8D3E8D2D8D3E8D213C310508F097
:10081000DEC022E02F8F4FB7F89431E03093F00123
:100820002091EF0123272093EF014FBFFC01178692
:10083000CE017DDE811106C00000CE0178DE81117F
:1008400001C00000DF91CF910895CFECD1E0B8CF87
:100850002FE33EE33DCF2FE33EE32ACF2FE33EE3FA
:1008600047CF22E02B83E0918A01F0918B01208118
:100870002C83218132813E832D836D817E812D8168
:100880003E81213C310548F02D813E8121343140AB
:1008900008F0B1C021E02F8302C022E02F83038043
:1008A000F481E02D2081288721813281261B370B9E
:1008B0003A87298749855A85460F571F29853A85E2
:1008C000213C310548F029853A852134314008F032
:1008D00090C021E02B8702C022E02B870380F481A7
:1008E000E02D20812C8721813281241B350B3E870E
:1008F0002D872D853E85240F351F4D855E85413C16
:10090000510548F04D855E854134514008F06FC077
:1009100041E04F8702C042E04F870380F481E02D21
:100920004081488B41815281421B530B5A8B498B2A
:1009300049895A89420F531F29893A89213C310537
:1009400048F029893A892134314008F04EC021E02D
:100950002B8B02C022E02B8B0380F481E02D2081C1
:100960002C8B21813281241B350B3E8B2D8B2D89C5
:100970003E89240F351F4D895E89413C510540F069
:100980004D895E894134514070F541E04F8B02C082
:1009900042E04F8B0380F481E02D4081488F4181FC
:1009A0005281421B530B5A8F498F498D5A8D420FEA
:1009B000531F298D3A8D213C310508F415CF298D1F
:1009C0003A8D2134314068F421E02B8F0FCF2D8DEB
:1009D0003E8D2134314018F421E02F8F1CCF1F8E23
:1009E0001ACF1B8E03CF1F8AD5CF1B8AB5CF1F8688
:1009F00094CF1B8673CF1F8252CF1B8234CF9FB7F9
:100A0000F8948091F0019FBF0895E6EFF1E08081B6
:100A1000108208951F920F920FB60F9211242F93F8
:100A20003F938F939F93CF93DF9300D000D0CDB7A8
:100A3000DEB7789484B599B79F7799BF20918101EB
:100A4000309182013A83298399B7906899BF2981AF
:100A50003A8190E096958795820F931F9C838B83B4
:100A600080910102811112C08091020281111DC08A
:100A70008B819C81909300028093FF0181E08093A1
:100A80000102809302028EB580648EBD0F900F909C
:100A90000F900F90DF91CF919F918F913F912F9168
:100AA0000F900FBE0F901F9018958B819C81909393
:100AB000FE018093FD018EB58F7B8EBD10920202E8
:100AC000E5CF86E088BB90E395BB82BB87BB8CE01B
:100AD00084BB8EE381BBF894AB9AAA9815BC85B50C
:100AE000886085BD85B5826085BD14BC87EC83BDFB
:100AF00012BC89B7806889BF10928301109284016B
:100B0000109285011092860110928201109281014B
:100B10001092800183E092E0C9DA78941092010289
:100B200081E080930202B898C0988EB580648EBD33
:100B300089B7806289BF0895CF93DF93CDB7DEB7C1
:100B400060970FB6F894DEBF0FBECDBFBADFE0E10D
:100B5000DE2EFBE0CF2E0AE010E0AEE5EA2EFF2409
:100B6000F394B4E0BB2E03C083E092E0A0DA80915E
:100B700001028823C9F3E3E0F2E0DE0111968D2D36
:100B800001900D928A95E1F7CE0101963EDF882310
:100B900049F089B78F7D89BF1092010289B78062C1
:100BA00089BFAB98809101028823F1F289B78F7DCC
:100BB00089BF2091FF01309100028091FD01909149
:100BC000FE01281B390B89B7806289BFAB9A10924E
:100BD0000102A9014C5D5540CA0157FD53C002975F
:100BE0000CF000008091FB019091FC01281739075F
:100BF00009F4BACFC901895E9340873E934008F05B
:100C0000B3CFC49EC001C59E900D1124B80147D03A
:100C1000FB017093FA016093F9014091F701509143
:100C2000F801CA01880F991F880F991F880F991F13
:100C3000841B950BAF01440F551F4E0F5F1F840F90
:100C4000951FB8012CD07093F8016093F701309391
:100C5000FC012093FB019F01F7FD19C0C901880F1A
:100C6000991F820F931FB7011AD06F5F653038F458
:100C700060931E02BF0183E092E0E0DA75CFB0928C
:100C80001E02F8CF88279927841B950BA8CF22270F
:100C900033272E1B3F0BE2CF83E092E0F3C997FB93
:100CA000072E16F4009406D077FD08D03FD007FC3D
:100CB00005D03EF4909581959F4F0895709561956C
:100CC0007F4F0895052E97FB16F400940FD057FD23
:100CD00005D040D007FC02D046F408C0509540959E
:100CE000309521953F4F4F4F5F4F089590958095D8
:100CF000709561957F4F8F4F9F4F0895A29FB001D0
:100D0000B39FC001A39F01D0B29F700D811D11241C
:100D1000911D0895F3DFB7FF0895821B930B08958B
:100D2000B7FF40C03FD0821B930B0895AA1BBB1B8B
:100D300051E107C0AA1FBB1FA617B70710F0A61BDB
:100D4000B70B881F991F5A95A9F780959095BC01FC
:100D5000CD010895A1E21A2EAA1BBB1BFD010DC0F7
:100D6000AA1FBB1FEE1FFF1FA217B307E407F5075B
:100D700020F0A21BB30BE40BF50B661F771F881F37
:100D8000991F1A9469F760957095809590959B01CD
:100D9000AC01BD01CF010895EE0FFF1F0590F49146
:100DA000E02D0994ABDFA59F900DB49F900DA49FFB
:0C0DB000800D911D11240895F894FFCFD0
:100DBC000040060005400600064006000340060001
:100DCC0004400600014006000240060007400600F1
:100DDC00808386898C8F9295989C9FA2A5A8ABAE98
:100DEC00B0B3B6B9BCBFC1C4C7C9CCCED1D3D5D8AA
:100DFC00DADCDEE0E2E4E6E8EAECEDEFF0F2F3F563
:100E0C00F6F7F8F9FAFBFCFCFDFEFEFEFEFEFEFE1C
:100E1C00FEFEFEFEFEFEFEFEFDFCFCFBFAF9F8F704
:100E2C00F6F5F3F2F0EFEDECEAE8E6E4E2E0DEDC16
:100E3C00DAD8D5D3D1CECCC9C7C4C1BFBCB9B6B32F
:100E4C00B0AEABA8A5A29F9C9895928F8C898683F7
:100E5C00807C797673706D6A6763605D5A57545104
:100E6C004F4C494643403E3B383633312E2C2A27D3
:100E7C002523211F1D1B1917151312100F0D0C0AFA
:100E8C000908070605040303020101010101010120
:100E9C000101010101010101020303040506070818
:100EAC00090A0C0D0F1012131517191B1D1F2123E6
:100EBC0025272A2C2E313336383B3E404346494CAD
:100ECC004F5154575A5D6063676A6D707376797CC5
:00000001FF
