:1000000013C037C036C035C034C033C03CC131C066
:1000100030C012C12EC02DC02CC02BC02AC029C098
:1000200028C027C026C0640311241FBECFE5D4E03A
:10003000DEBFCDBF11E0A0E6B0E0EEE4F7E002C025
:1000400005900D92A038B107D9F721E0A0E8B1E002
:1000500001C01D92AC3EB207E1F710E0C8E2D0E06B
:1000600003C02297FE016DD3C632D107D1F7DFD28C
:100070006CC3C6CFCF93DF93EC01A8D11A8A88EE68
:1000800093E09C8B8B8B1D8A1E8A1F8A188E198E7B
:100090001A8EDF91CF910895C0C1CF92DF92EF9277
:1000A000FF920F931F93CF93DF93EC018F85811104
:1000B0007EC00B891C890115110509F056C01D8AE7
:1000C000CE0198D2811148C0ED898A89E80F8A8DC6
:1000D000E80FEA8FAE2FB0E0A058BF4F4C91A5E5D6
:1000E000AE0FB0E0A058BF4F2C91E655F0E0E058BD
:1000F000FF4F808196EA499FA00111240024440FFC
:10010000551F001C440F551F001C452F502D5983AF
:10011000488396EA299F900111240024220F331F5F
:10012000001C220F331F001C232F302D3E832D83F4
:1001300026EA829FC00111240024880F991F001C09
:10014000880F991F001C892F902D9B878A8781E03B
:100150008F87CE0181D11D8ADF91CF911F910F91A1
:10016000FF90EF90DF90CF900895409180015091E3
:10017000810160918201709183018E899F89A88D90
:10018000B98D6A017B01C81AD90AEA0AFB0A20E084
:1001900030E0C016D106E206F30608F491CF4E8B8C
:1001A0005F8B688F798F8D898F5F8D8B89CFCE0123
:1001B00053D17FCFCF92DF92EF92FF92CF93DF9315
:1001C000EC016115710571F1798B688BDB0120E918
:1001D00038E547E150E0A9D220E63AEE40E050E0B1
:1001E00076D269017A01CA01B90128EE33E040E014
:1001F00050E06DD22A8BA8EEB3E097D2A70196010A
:10020000261B370B480B590B60E177E280E090E04A
:100210005ED23C8B2B8BDF91CF91FF90EF90DF90E4
:10022000CF9008951C8A1B8A1A8ADF91CF91FF9084
:10023000EF90DF90CF9008951F920F920FB60F921C
:1002400011248F939F93AF93BF938BE382BF8091D1
:10025000800190918101A0918201B091830101966A
:10026000A11DB11D8093800190938101A093820113
:10027000B0938301BF91AF919F918F910F900FBE6B
:100280000F901F9018951F920F920FB60F92112486
:100290002F933F934F935F936F937F938F939F938E
:1002A000EF93FF9380E89EE39BBD8ABDAB9880915E
:1002B000CA01882309F449C08AE090E061E040E87F
:1002C0005EE370E1E091C601F091C70120812081D9
:1002D000213009F465C008F45AC0223009F444C042
:1002E0002330A9F4218132812091C501222309F410
:1002F00060C02091C401222309F465C0E4E8F1E064
:10030000F093C901E093C8011092C50156C0109244
:10031000CA01611135C02381223081F021813281EF
:100320003BBD2ABD2381222379F008B604FC03C01B
:1003300008B604FEFDCF5BBD4ABD78BF1DBC1CBC2A
:100340000197009709F0BECFAB9AFF91EF919F9173
:100350008F917F916F915F914F913F912F910F906E
:100360000FBE0F901F901895C29A95982AE02A9573
:10037000F1F700C0949AC198E091C601F091C701CD
:100380003496F093C701E093C60161E0C4CFC19AEF
:1003900093982AE02A95F1F700C0959A9298ECCFAD
:1003A000929A94982AE02A95F1F700C0939AC298FD
:1003B000E3CFE091C801F091C901F093C701E09348
:1003C000C60160E0A8CFE4EAF1E09ACFCF93DF93D3
:1003D000EC0184E891E09093C9018093C80121E089
:1003E0002093C4019093C7018093C6011092C50168
:1003F0002093CA0180E2E0E6F0E0A4E8B1E00190D9
:100400000D928A95E1F7198218821E821D821B8641
:100410001A861F86DF91CF910895F8949398949847
:100420009598929AC19AC29A1FBC1EBC89B7837CC8
:1004300089BF1DBC1CBC80E09AE69BBD8ABD8EB501
:1004400088608EBD8EB581608EBD89B7806189BFA1
:1004500080E188BF78940895DC018091C501811105
:100460007EC08D919C91119782959295907F98274F
:10047000807F982780342EE3920708F07CC0139683
:100480009C938E93129715968D919C9116978295B9
:100490009295907F9827807F982780343EE393073A
:1004A00008F06FC018969C938E9317971A968D91AB
:1004B0009C911B9782959295907F9827807F982793
:1004C00080346EE3960708F04BC01D969C938E9384
:1004D0001C972091C401222309F450C0E4EAF1E002
:1004E00017964D915C911897840F951F20E83EE375
:1004F000281B390B12968D919C911397281B390B51
:1005000032832183108221813281213C3105E0F147
:10051000218132812134314008F06AC021E02383F7
:1005200035C023871C968D919C911D979687858752
:1005300083E0848785859685813C910508F04AC0D3
:1005400082E087872FB7F89491E09093C50180915E
:10055000C40189278093C4012FBF1F961C92089560
:100560008FE39EE31D969C938E931C972091C4016C
:10057000222321F0B3CF8FE39EE381CFE4E8F1E0C3
:10058000AFCF8FE39EE38ECF22E0238396838583D4
:1005900021E0248385819681813C910538F0858115
:1005A00096818134914010F5278302C082E08783D1
:1005B0005287418722E0208781859285813C910581
:1005C00008F4AFCF818592858134914068F481E051
:1005D0008387A8CF858596858134914018F481E082
:1005E0008787B0CF1786AECF13869CCF1782E0CF18
:1005F0001382CCCF9FB7F8948091C5019FBF089517
:1006000086E088BB90E395BB82BB87BB8CE084BB54
:100610008EE381BBF894AB9AAA9882E083BF8BE308
:1006200082BF89B7816089BF81ED91E035CDE8DF78
:100630000DC04F5F5F4F5093CC014093CB01BA0187
:1006400081ED91E0B7DD81ED91E027DD80918001C2
:1006500090918101A0918201B09183014091CD01DF
:100660005091CE016091CF017091D0018C019D011C
:10067000041B150B260B370BB901A80140325E4451
:100680006105710500F38093CD019093CE01A09395
:10069000CF01B093D0014091CB015091CC014A30B1
:1006A000510538F29A01ADECBCEC33D096958795A4
:1006B0009695879596958795840F951F9093CC0175
:1006C0008093CB01BC01BCCF81ED91E0D3CCA1E202
:1006D0001A2EAA1BBB1BFD010DC0AA1FBB1FEE1FBC
:1006E000FF1FA217B307E407F50720F0A21BB30B07
:1006F000E40BF50B661F771F881F991F1A9469F783
:1007000060957095809590959B01AC01BD01CF01DE
:100710000895A29FB001B39FC001A39F01D0B29FD3
:10072000700D811D1124911D0895F3DFA59F900D7B
:10073000B49F900DA49F800D911D11240895EE0F7C
:0E074000FF1F0590F491E02D0994F894FFCF6F
:10074E00004006000140060002400600034006007D
:10075E00000000000000000000000000000000008B
:10076E00808386898C8F9295989B9EA2A5A7AAAD11
:10077E00B0B3B6B9BCBEC1C4C6C9CBCED0D3D5D723
:10078E00DADCDEE0E2E4E6E8EAEBEDEEF0F1F3F4DB
:10079E00F5F6F8F9FAFAFBFCFDFDFEFEFEFFFFFF93
:1007AE00FFFFFFFFFEFEFEFDFDFCFBFAFAF9F8F679
:1007BE00F5F4F3F1F0EEEDEBEAE8E6E4E2E0DEDC90
:1007CE00DAD7D5D3D0CECBC9C6C4C1BEBCB9B6B3A9
:1007DE00B0ADAAA7A5A29E9B9895928F8C89868371
:1007EE00807C797673706D6A6764615D5A58555274
:1007FE004F4C494643413E3B393634312F2C2A2843
:10080E002523211F1D1B1917151412110F0E0C0B6A
:10081E000A09070605050403020201010100000092
:10082E00000000000101010202030405050607098C
:10083E000A0B0C0E0F1112141517191B1D1F212355
:10084E0025282A2C2F313436393B3E414346494C1C
:10085E004F5255585A5D6164676A6D707376797C34
:00000001FF
