S0100000747269706F6C61722E73726563A7
S113000012C02CC02BC02AC029C028C028C026C0BA
S113001025C024C023C022C021C020C01FC01EC0D0
S11300201DC01CC01BC011241FBECFE5D4E0DEBF21
S1130030CDBF13E0A0E6B0E0E8EEF3E002C0059027
S11300400D92A633B107D9F723E0A6E3B3E001C0CC
S11300501D92A935B207E1F78ED1C4C1D1CF1F9249
S11300600F920FB60F9211240F900FBE0F901F9096
S1130070189580915203882321F08FEF80934A03CF
S113008003C081E080934A0380914A03992787FD46
S113009090956091480370914903680F791F70939C
S11300A04903609348034091550350915603480F08
S11300B0591F509356034093550320914E0330919A
S11300C04F03280F391F30934F0320934E03809121
S11300D0530390915403861797072CF41092490305
S11300E0109248030AC06091480370914903772332
S11300F024F49093490380934803841795072CF4C0
S113010010925603109255030AC040915503509122
S11301105603552324F49093560380935503821772
S113012093072CF410924F0310924E0308952091DC
S11301304E0330914F03332324F490934F03809361
S11301404E030895F89486E088BB90E395BB82BB88
S113015087BB14BA8EE381BB85B58E7F85BD85B51B
S1130160826085BD85B58B7F85BD1FBC1EBC19BE55
S11301701DBC1CBC8FEF9FEF9BBD8ABD8EB58160FB
S11301808EBD88B7806188BF78941092490310921D
S1130190480388E790E0909356038093550380EFDB
S11301A090E090934F0380934E0387E691E0909301
S11301B054038093530385E592EB909364008093FA
S11301C0630057DF089584B5883DA8F09398949808
S11301D0959880914603882371F08091430380931E
S11301E040038091440380934103809145038093AD
S11301F042031092460324B58091400330E090E01E
S11302008896821793070CF4939A94B580914003CF
S1130210981718F49298939801C0929A24B58091F3
S1130220410330E090E08896821793070CF4949A87
S113023094B580914103981718F4C298949801C01A
S1130240C29A24B58091420330E090E088968217E8
S113025093070CF4959A94B580914203981718F477
S1130260C19895980895C19A08958CB59DB520912B
S11302703C0330913D03821B930B81389E4378F0FD
S113028080913A0390913B03019690933B038093B2
S11302903A038CB59DB590933D0380933C032CB5F4
S11302A03DB58091380390913903281B390B809117
S11302B06300909164008217930738F48CB59DB560
S11302C09093390380933803D4DE80913A0390915C
S11302D03B032091360330913703AC01421B530B8F
S11302E043335105E0F09093370380933603A09194
S11302F06100B0916200CD010196909362008093F9
S113030061002CE231E05CD09B01AC0160E07CEF49
S11303108CEA96E033D0309364002093630080919C
S11303204603811126C0E0914803F0914903EE0F82
S1130330FF1FEB59FF4F808180934303E0915503E6
S1130340F0915603EE0FFF1FEB59FF4F808180930E
S11303504403E0914E03F0914F03EE0FFF1FEB595E
S1130360FF4F80818093450381E080934603109280
S1130370600029DF0895E6DE78DFFECFA1E21A2EC1
S1130380AA1BBB1BFD010DC0AA1FBB1FEE1FFF1F35
S1130390A217B307E407F50720F0A21BB30BE40B85
S11303A0F50B661F771F881F991F1A9469F76095CC
S11303B07095809590959B01AC01BD01CF01089586
S11303C005D0B7FF0895821B930B0895A29FB00137
S11303D0B39FC001A39F01D0B29F700D811D112452
S10B03E0911D0895F894FFCF6C
S11303E8010100803E8000840088008C008F009307
S11303F80097009B009F00A200A600AA00AE00B2CE
S113040800B500B900BD00C000C400C800CB00CFCF
S113041800D300D600DA00DD00E100E400E800EBD8
S113042800EE00EF00F000F100F200F300F400F534
S113043800F600F700F800F800F900FA00FA00FBEB
S113044800FC00FC00FD00FD00FD00FE00FE00FEB7
S113045800FF00FF00FF00FF00FF00FF00FF00FF98
S113046800FF00FF00FF00FF00FF00FE00FE00FE8B
S113047800FD00FD00FD00FC00FC00FB00FA00FA92
S113048800F900F800F800F700F600F500F400F3AE
S113049800F200F100F000EF00EE00EF00F000F1D0
S11304A800F200F300F400F500F600F700F800F895
S11304B800F900FA00FA00FB00FC00FC00FD00FD56
S11304C800FD00FE00FE00FE00FF00FF00FF00FF2D
S11304D800FF00FF00FF00FF00FF00FF00FF00FF18
S11304E800FF00FE00FE00FE00FD00FD00FD00FC14
S11304F800FC00FB00FA00FA00F900F800F800F725
S113050800F600F500F400F300F200F100F000EF4B
S113051800EE00EB00E800E400E100DD00DA00D6BC
S113052800D300CF00CB00C800C400C000BD00B990
S113053800B500B200AE00AA00A600A2009F009B6E
S113054800970093008F008C008800840080007C52
S1130558007800740071006D006900650061005E38
S1130568005A00560052004E004B0047004300401A
S1130578003C003800350031002D002A00260023F5
S1130588001F001C00180015001200110010000FB5
S1130598000E000D000C000B000A000900080008FA
S11305A80007000600060005000400040003000319
S11305B80003000200020002000100010001000122
S11305C80001000100010001000100010001000117
S11305D800010002000200020003000300030004FB
S11305E800040005000600060007000800080009CA
S11305F8000A000B000C000D000E000F0010001183
S1130608001200110010000F000E000D000C000B6A
S1130618000A000900080008000700060006000593
S113062800040004000300030003000200020002A7
S113063800010001000100010001000100010001A6
S11306480001000100010001000100020002000293
S1130658000300030003000400040005000600066C
S11306680007000800080009000A000B000C000D30
S1130678000E000F00100011001200150018001CD5
S1130688001F00230026002A002D00310035003801
S1130698003C004000430047004B004E0052005607
S11306A8005A005E006100650069006D0071007405
S10906B80078007C000044
S9030000FC
