:100000001BC03FC03EC03DC03CC03BC03BC039C030
:1000100038C037C036C035C034C033C032C031C03C
:1000200030C02FC02EC08CC08FC090C091C092C075
:1000300093C094C095C04D0311241FBECFE5D4E0FA
:10004000DEBFCDBF11E0A0E6B0E0E6E4F7E002C01D
:1000500005900D92A038B107D9F722E0A0E8B1E0F1
:1000600001C01D92AC30B207E1F710E0C8E3D0E068
:1000700003C02297FE0161D3C633D107D1F7FDD269
:1000800060C3BECF1F920F920FB60F9211242F9212
:100090004F925F927F928F929F92AF92BF92CF9238
:1000A000DF92EF92FF920F931F932F933F934F9303
:1000B0005F936F937F938F939F93AF93BF93CF93F0
:1000C000DF93EF93FF9380E89EE39BBD8ABDAB98DF
:1000D0008091EE01882309F495C04AE050E099240C
:1000E0009394AAEEB1E00F2EFEEE4F2EF1E05F2EBC
:1000F000F02D8824839469EE71E0CCEED1E0712C70
:100100000F2EF8EEEF2EF1E0FF2EF02D0F2EF8EC73
:10011000CF2EF1E0DF2EF02D0F2EF8EAAF2EF1E01A
:10012000BF2EF02DED91FC91119780812080022D42
:1001300010E00830110578F5F801ED5EFF4F0994E5
:100140009298C298C1985CC0929A5AC0939A58C02B
:10015000C29A56C0949A54C0C19A52C0959A50C03F
:10016000939894989598FB018081882369F0F70112
:100170008081882319F09A2D8B2D02C09C2D8D2D06
:1001800098838983FB0110828881998111969C93C1
:100190008E93972C0BC0F2011082992039F08D912B
:1001A0009C911197049611969C938E93ED91FC91DE
:1001B00011978381811109C0818192819BBD8ABD84
:1001C0001DBC1CBC80E188BF19C01DBC1CBC2CB56B
:1001D0003DB5ED91FC9111978181928128173907E6
:1001E00038F42CB53DB58181928128173907C8F3C1
:1001F000415051094115510509F094CFAB9A02C005
:10020000982CCDCFFF91EF91DF91CF91BF91AF911E
:100210009F918F917F916F915F914F913F912F911E
:100220001F910F91FF90EF90DF90CF90BF90AF9014
:100230009F908F907F905F904F902F900F900FBE68
:100240000F901F901895CF93DF93EC0188EA91E00F
:100250009093ED018093EC0121E02093E8019093CD
:10026000EB018093EA011092E9012093EE012093C3
:10027000F80180E2E0E6F0E0A8EAB1E001900D923A
:100280008A95E1F7198218821E821D821B861A86C2
:100290001F86DF91CF910895F8949398949895983C
:1002A000929AC19AC29A1FBC1EBC19BE1DBC1CBC2E
:1002B00080E09AE69BBD8ABD8EB588608EBD8EB506
:1002C00081608EBD89B7806189BF80E188BF7894E5
:1002D0000895FF920F931F93CF93DF93CDB7DEB7AF
:1002E00028970FB6F894DEBF0FBECDBFFE01319642
:1002F0009E01275F3F4F1192E217F307E1F78C0150
:10030000005E1F4FFC0140E050E0BA01FF24F3946F
:1003100020812230F1F42A8121111BC02CC02C81B4
:1003200021111AC028C02E81211119C024C020819A
:10033000A1E0B0E0AC0FBD1FA20FB11DFC9234963E
:10034000E017F10729F7FC012081211114C0848DE9
:1003500012C02081243019F32081263021F321811D
:100360003281420F531F611D711D41382EE3520728
:1003700061057105E0F280E028960FB6F894DEBFC3
:100380000FBECDBFDF91CF911F910F91FF900895C8
:100390006F927F928F929F92AF92BF92CF92DF9295
:1003A000EF92FF920F931F93CF93DF937C01809185
:1003B000E9018111F7C0E0E8F1E020E02083CF01FE
:1003C0000596948383832F5F273011F0FC01F6CFCD
:1003D0001092A7011092A60187E08093A301E70184
:1003E00000E010E00F2E88248A94F3E09F2EA12CC9
:1003F000B12CF02D66246A940F2EF1E37F2EF02DA0
:100400006E0128813981A0E8BEE367D1A50194017E
:1004100048D13B832A83211582E3380710F0262D2B
:10042000372DD60113963C932E9312970F5F1F4FD3
:1004300025960330110521F7109282011092810157
:1004400080E498E39093A5018093A401F701828151
:100450009381909387018093860182819381805C50
:10046000994F90938C0180938B0187819085909315
:1004700091018093900187819085805C994F909342
:100480009601809395018485958590939B01809337
:100490009A0184859585805C994F9093A001809303
:1004A0009F0163E871E0C12C40E851E0DD24D39462
:1004B000DB01ED91FC910C2D1C2DEA0105C0A92F4B
:1004C000B82F0D2DEF01FD01A381B481218132816F
:1004D00011968D919C91129782179307A0F4139611
:1004E0009C91139714968C911497BC83AB83A38132
:1004F000B4811496FC93EE931397938384831E5FC9
:100500001630E8F2D5CF1F5F1630E0F20111D0CFE0
:100510008091E801882319F0C8ECD1E002C0C8EA54
:10052000D1E0188280E496E09A83898381E08B830E
:10053000FE013496A0918301B0918401BE01605EFA
:100540007F4F20E030E091E08C91808311964D91B7
:100550005C911297421B530B52834183418152811C
:10056000413A510508F4938341815281240F351F8C
:10057000349613960D90BC91A02DE617F70721F73E
:100580009FB7F89481E08093E901E8EEF1E02081E3
:10059000822780839FBFF7011786CE019ADE8111E3
:1005A00001C00000DF91CF911F910F91FF90EF905C
:1005B000DF90CF90BF90AF909F908F907F906F9083
:1005C00008958CEF91E068DE0895CF93DF93A091BA
:1005D000F901E1E0EA0FE093F901C6E5CA0FD0E0C6
:1005E000C058DF4F288130E0220F331F220F331F06
:1005F000A555B0E0A058BF4F8C9190E0880F991F8F
:10060000880F991FF0E0E058FF4F408150E0440F01
:10061000551F440F551F5093FD014093FC0130932B
:10062000020220930102909307028093060281E068
:1006300080930B028CEF91E0ABDEDF91CF910895B8
:100640008091FA019091FB0101969093FB018093B8
:10065000FA0180910B02882319F08CEF91E098DE6B
:100660008091FA019091FB01843691052CF0ADDF69
:100670001092FB011092FA01089586E088BB90E386
:1006800095BB82BB87BB8CE084BB8EE381BBF894B7
:10069000AB9AAA9896DFD4DFFECF8CEF91E0D3DD42
:1006A0000895052E97FB16F400940FD057FD05D042
:1006B00020D007FC02D046F408C0509540953095F4
:1006C00021953F4F4F4F5F4F0895909580957095BE
:1006D00061957F4F8F4F9F4F0895A29FB001B39FA9
:1006E000C001A39F01D0B29F700D811D1124911DE7
:1006F0000895A1E21A2EAA1BBB1BFD010DC0AA1F63
:10070000BB1FEE1FFF1FA217B307E407F50720F07A
:10071000A21BB30BE40BF50B661F771F881F991FF5
:100720001A9469F760957095809590959B01AC013E
:10073000BD01CF010895EE0FFF1F0590F491E02D4C
:060740000994F894FFCFBC
:10074600004006010540060006400601034006007B
:10075600044006010140060002400601074006006B
:10076600808386898C8F9295989C9FA2A5A8ABAE14
:10077600B0B3B6B9BCBFC1C4C7C9CCCED1D3D5D826
:10078600DADCDEE0E2E4E6E8EAECEDEFF0F2F3F5DF
:10079600F6F7F8F9FAFBFCFCFDFEFEFEFEFEFEFE99
:1007A600FEFEFEFEFEFEFEFEFDFCFCFBFAF9F8F781
:1007B600F6F5F3F2F0EFEDECEAE8E6E4E2E0DEDC93
:1007C600DAD8D5D3D1CECCC9C7C4C1BFBCB9B6B3AC
:1007D600B0AEABA8A5A29F9C9895928F8C89868374
:1007E600807C797673706D6A6763605D5A57545181
:1007F6004F4C494643403E3B383633312E2C2A2750
:100806002523211F1D1B1917151312100F0D0C0A76
:10081600090807060504030302010101010101019C
:100826000101010101010101020303040506070894
:10083600090A0C0D0F1012131517191B1D1F212362
:1008460025272A2C2E313336383B3E404346494C29
:100856004F5154575A5D6063676A6D707376797C41
:00000001FF
