:100000001BC03FC03EC03DC03CC03BC018C139C052
:1000100038C0EEC036C035C034C033C032C031C085
:1000200030C02FC02EC092C17EC17BC178C175C1C6
:1000300072C168C17AC1A70411241FBECFE5D4E004
:10004000DEBFCDBF11E0A0E6B0E0ECE0FAE002C018
:1000500005900D92A038B107D9F722E0A0E8B1E0F1
:1000600001C01D92AE30B207E1F710E0C8E3D0E066
:1000700003C02297FE01C4D4C633D107D1F762D49E
:10008000C3C4BECFCF93DF93EC0174D11A8A88EE3C
:1000900093E09C8B8B8B1D8A1E8A1F8A188E198E6B
:1000A0001A8EDF91CF9108958CC1CF92DF92EF929B
:1000B000FF920F931F93CF93DF93EC018F858111F4
:1000C0005FC04091800150918101609182017091E7
:1000D00083010E891F89288D398D6A017B01C01A21
:1000E000D10AE20AF30A0B891C8920E030E0C0162D
:1000F000D106E206F30638F04E8B5F8B688F798F5E
:100100008D898F5F8D8BCE01FBD3811130C0ED893E
:100110008A89E80F8A8DE80FEA8FAE2FB0E0A058E9
:10012000BF4F4C91A5E5AE0FB0E0A058BF4F2C914A
:10013000E655F0E0E058FF4F808150E0440F551F36
:10014000440F551F5983488330E0220F331F220F7D
:10015000331F3E832D8390E0880F991F880F991FCE
:100160009B878A8781E08F87CE01B2D11D8ADF917C
:10017000CF911F910F91FF90EF90DF90CF90089556
:10018000CE01A6D19ECFCF92DF92EF92FF92CF9376
:10019000DF93EC01798B688BDB0120E938E547E1DF
:1001A00050E022D420E63AEE40E050E0D3D369019B
:1001B0007A01CA01B90128EE33E040E050E0CAD329
:1001C0002A8BA8EEB3E010D4A7019601261B370BAB
:1001D000480B590B60E177E280E090E0BBD33C8BA9
:1001E0002B8BDF91CF91FF90EF90DF90CF90089510
:1001F0001F920F920FB60F9211248F939F93AF937C
:10020000BF938BE382BF8091800190918101A09187
:100210008201B09183010196A11DB11D80938001DF
:1002200090938101A0938201B0938301BF91AF911C
:100230009F918F910F900FBE0F901F9018951F9256
:100240000F920FB60F9211242F933F934F935F930A
:100250006F937F938F939F93AF93BF93CF93DF93CE
:10026000EF93FF9380E89EE39BBD8ABDAB9880919E
:10027000F201882381F12AE030E061E040E85EE3AA
:1002800070E1C091EE01D091EF01FE01888188817B
:1002900090E08830910590F11092F201611133C025
:1002A0008381823081F0818192819BBD8ABD83816F
:1002B000882381F008B604FC03C008B604FEFDCF15
:1002C0005BBD4ABD78BF1DBC1CBC21503109211546
:1002D0003105B9F6AB9AFF91EF91DF91CF91BF91C4
:1002E000AF919F918F917F916F915F914F913F91CE
:1002F0002F910F900FBE0F901F901895FC01ED5E8F
:10030000FF4F0994959AFE013496F093EF01E09324
:10031000EE0161E0C5CFC19AF6CF949AF4CFC29AAC
:10032000F2CF939AF0CF929AEECF939894989598B3
:100330008091ED0181110EC0E091F001F091F10189
:10034000F093EF01E093EE0160E0AACF9298C2989B
:10035000C198D9CF8091EC01811109C0ECECF1E09A
:10036000F093F101E093F0011092ED01E9CFECEA96
:10037000F1E0F6CFCF93DF93EC018CEA91E090931C
:10038000F1018093F00121E02093EC019093EF01C3
:100390008093EE011092ED012093F20180E2E0E6FD
:1003A000F0E0ACEAB1E001900D928A95E1F7198294
:1003B00018821E821D821B861A861F86DF91CF91AE
:1003C0000895F894939894989598929AC19AC29A9D
:1003D0001FBC1EBC89B7837C89BF1DBC1CBC80E0D0
:1003E0009AE69BBD8ABD8EB588608EBD8EB5816054
:1003F0008EBD89B7806189BF80E188BF78940895F8
:10040000DF92EF92FF920F931F93CF93DF93CDB7BD
:10041000DEB728970FB6F894DEBF0FBECDBF8E01B2
:100420000F5F1F4F28E0F80111922A95E9F77C0130
:10043000F0E2EF0EF11CFC0140E050E0BA01DD24D7
:10044000D39415C02081243039F12081263051F118
:1004500021813281420F531F611D711D2081D801FE
:10046000A20FB11DDC923496EE15FF05F9F0208144
:10047000223041F72A812111E5CF80E028960FB67E
:10048000F894DEBF0FBECDBFDF91CF911F910F91CA
:10049000FF90EF90DF9008952C81222371F320814B
:1004A0002630B1F62E812111D3CFE7CF4A5A5942D7
:1004B00061097109473D544161057105F0F6FC0180
:1004C00020812111DACF948D81E09730B1F6D6CF1B
:1004D0000F931F93CF93DF938C018091ED018111D6
:1004E0002EC11092840189E891E090938801809355
:1004F000870181E0809389018EE891E090938D01DE
:1005000080938C0182E080938E0183E991E0909347
:1005100092018093910183E08093930188E991E0B7
:10052000909397018093960184E0809398018DE9E0
:1005300091E090939C0180939B0185E080939D01C5
:1005400082EA91E09093A1018093A00186E08093DC
:10055000A20187EA91E09093A6018093A5011092F1
:10056000AB011092AA0187E08093A701F8012081D6
:100570003181A0E8BEE32CD22FEF33E040E050E021
:100580000BD2F801338322832034FEE33F0708F0C7
:10059000E1C0F8013383228325813681A0E8BEE3E0
:1005A00017D22FEF33E040E050E0F6D1F80130876A
:1005B00027832034FEE33F0708F0C9C0F8013087E5
:1005C000278322853385A0E8BEE302D22FEF33E0F4
:1005D00040E050E0E1D1F801358724872034FEE384
:1005E0003F0708F0BAC0F8013587248710928601CA
:1005F0001092850180E69EE39093A9018093A80163
:100600008281938190938B0180938A01809690934D
:10061000900180938F0187819085909395018093BD
:100620009401809690939A018093990130939F0151
:1006300020939E01205E3F4F3093A4012093A3019D
:10064000E0918701F091880170E060E0C4E8D1E0BA
:1006500018C013969C91139714968C911497BC8391
:10066000AB83A381B4811496FC93EE931397938389
:1006700084836F5F71E06F5F663098F4EF01E92F5C
:10068000F82FA381B4812181328111968D919C91A3
:10069000129782179307E8F29A2F8B2F6F5F6630BD
:1006A00068F37111CDCF8091EC0181114DC0CCEA7E
:1006B000D1E0188280E290E09A83898389819A81CF
:1006C000813C910508F44CC089819A818134914024
:1006D00008F014C181E08B8345C022E02B8F298D67
:1006E0003A8D0380F481E02D40814C8F280F391F13
:1006F00081819281821B930B9E8F8D8F8D8D9E8D1C
:10070000813C910508F0E4C082E08F8F8D8D9E8D35
:100710002FB7F89491E09093ED018091EC01892737
:100720008093EC012FBFF8011786CE0169DE81119D
:1007300006C00000CE0164DE811101C00000DF911F
:10074000CF911F910F910895CCECD1E0B2CF2FE360
:100750003EE334CF2FE33EE31CCF2FE33EE343CF12
:1007600082E08B8329813A81E0918701F0918801B1
:1007700080818C8381819281821B930B9E838D83E8
:100780008D819E81813C910548F08D819E818134CF
:10079000914008F0B1C081E08F8302C082E08F8376
:1007A0008D819E81820F931F0380F481E02D208133
:1007B000288721813281281B390B3A87298729858F
:1007C0003A85213C310548F029853A85213431406C
:1007D00008F090C021E02B8702C022E02B872985FA
:1007E0003A85280F391F0380F481E02D80818C87A2
:1007F00081819281821B930B9E878D878D859E853B
:10080000813C910548F08D859E858134914008F0AA
:100810006FC081E08F8702C082E08F878D859E85C3
:10082000820F931F0380F481E02D2081288B21818A
:100830003281281B390B3A8B298B29893A89213C33
:10084000310548F029893A892134314008F04EC0F9
:1008500021E02B8B02C022E02B8B29893A89280FBB
:10086000391F0380F481E02D80818C8B81819281FE
:10087000821B930B9E8B8D8B8D899E89813C91056C
:1008800040F08D899E898134914070F581E08F8B95
:1008900002C082E08F8B8D899E89820F931F038017
:1008A000F481E02D2081288F21813281281B390B92
:1008B0003A8F298F298D3A8D213C310508F40DCFCF
:1008C000298D3A8D2134314068F421E02B8F07CFF8
:1008D0008D8D9E8D8134914018F481E08F8F16CFDD
:1008E0001F8E14CF1B8EFBCE1F8AD5CF1B8AB5CF90
:1008F0001F8694CF1B8673CF1F8252CF1B8232CFAD
:100900009FB7F8948091ED019FBF089586E088BB62
:1009100090E395BB82BB87BB8CE084BB8EE381BB3D
:10092000F894AB9AAA9882E083BF8BE382BF89B721
:10093000816089BF83EF91E0B7DB64EF71E083EF03
:1009400091E021CCE3DF83EF91E0AFDBFCCF83EFDD
:1009500091E098CBA1E21A2EAA1BBB1BFD010DC092
:10096000AA1FBB1FEE1FFF1FA217B307E407F5075F
:1009700020F0A21BB30BE40BF50B661F771F881F3B
:10098000991F1A9469F760957095809590959B01D1
:10099000AC01BD01CF010895052E97FB16F400941C
:1009A0000FD057FD05D0D6DF07FC02D046F408C0B3
:1009B00050954095309521953F4F4F4F5F4F08958B
:1009C00090958095709561957F4F8F4F9F4F0895BB
:1009D000A29FB001B39FC001A39F01D0B29F700D31
:1009E000811D1124911D0895F3DFA59F900DB49FE3
:1009F000900DA49F800D911D11240895EE0FFF1FEF
:0C0A00000590F491E02D0994F894FFCFCC
:100A0C0000400600054006000640060003400600B4
:100A1C0004400600014006000240060007400600A4
:100A2C00808386898C8F9295989C9FA2A5A8ABAE4B
:100A3C00B0B3B6B9BCBFC1C4C7C9CCCED1D3D5D85D
:100A4C00DADCDEE0E2E4E6E8EAECEDEFF0F2F3F516
:100A5C00F6F7F8F9FAFBFCFCFDFEFEFEFEFEFEFED0
:100A6C00FEFEFEFEFEFEFEFEFDFCFCFBFAF9F8F7B8
:100A7C00F6F5F3F2F0EFEDECEAE8E6E4E2E0DEDCCA
:100A8C00DAD8D5D3D1CECCC9C7C4C1BFBCB9B6B3E3
:100A9C00B0AEABA8A5A29F9C9895928F8C898683AB
:100AAC00807C797673706D6A6763605D5A575451B8
:100ABC004F4C494643403E3B383633312E2C2A2787
:100ACC002523211F1D1B1917151312100F0D0C0AAE
:100ADC0009080706050403030201010101010101D4
:100AEC0001010101010101010203030405060708CC
:100AFC00090A0C0D0F1012131517191B1D1F21239A
:100B0C0025272A2C2E313336383B3E404346494C60
:100B1C004F5154575A5D6063676A6D707376797C78
:00000001FF
