:100000001BC03FC03EC03DC03CC03BC062C039C009
:1000100038C038C036C035C034C033C032C031C03B
:1000200030C02FC02EC0DCC0C8C0C5C0C2C0BFC059
:10003000BCC0B2C0C4C0790411241FBECFE5D4E057
:10004000DEBFCDBF11E0A0E6B0E0ECE9F9E002C010
:1000500005900D92A238B107D9F722E0A2E8B1E0ED
:1000600001C01D92AE30B207E1F710E0C8E3D0E066
:1000700003C02297FE018CD4C633D107D1F7A9D390
:100080008BC4BECF1F920F920FB60F9211248F9385
:100090009F93AF93BF9385E082BF8091820190913F
:1000A0008301A0918401B09185010196A11DB11D2C
:1000B0008093820190938301A0938401B093850182
:1000C000BF91AF919F918F910F900FBE0F901F9096
:1000D00018951F920F920FB60F9211242F933F93F2
:1000E0004F935F936F937F938F939F93AF93BF9340
:1000F000CF93DF93EF93FF9380E89EE39BBD8ABD90
:10010000AB988091F401882381F12AE030E061E02E
:1001100040E85EE370E1C091F001D091F101FE0191
:100120008881888190E08830910590F11092F401E7
:10013000611133C08381823081F0818192819BBDC6
:100140008ABD8381882381F008B604FC03C008B609
:1001500004FEFDCF5BBD4ABD78BF1DBC1CBC215059
:10016000310921153105B9F6AB9AFF91EF91DF9175
:10017000CF91BF91AF919F918F917F916F915F913F
:100180004F913F912F910F900FBE0F901F90189598
:10019000FC01ED5EFF4F0994959AFE013496F093B1
:1001A000F101E093F00161E0C5CFC19AF6CF949AD6
:1001B000F4CFC29AF2CF939AF0CF929AEECF93985F
:1001C000949895988091EF0181110EC0E091F20111
:1001D000F091F301F093F101E093F00160E0AACF18
:1001E0009298C298C198D9CF8091EE01811109C02F
:1001F000EEECF1E0F093F301E093F2011092EF01E5
:10020000E9CFEEEAF1E0F6CFCF93DF93EC018EEA8F
:1002100091E09093F3018093F20121E02093EE01AD
:100220009093F1018093F0011092EF012093F4017B
:1002300080E2E0E6F0E0AEEAB1E001900D928A954E
:10024000E1F7198218821E821D821B861A861F867C
:10025000DF91CF910895F894939894989598929AF5
:10026000C19AC29A1FBC1EBC89B7837C89BF1DBCC2
:100270001CBC80E09AE69BBD8ABD8EB588608EBDB1
:100280008EB581608EBD89B7806189BF80E188BFEE
:1002900078940895DF92EF92FF920F931F93CF937C
:1002A000DF93CDB7DEB728970FB6F894DEBF0FBE49
:1002B000CDBF8E010F5F1F4F28E0F80111922A95E4
:1002C000E9F77C01F0E2EF0EF11CFC0140E050E0A8
:1002D000BA01DD24D39415C02081243039F1208166
:1002E000263051F121813281420F531F611D711D52
:1002F0002081D801A20FB11DDC923496EE15FF05C6
:10030000F9F02081223041F72A812111E5CF80E0E8
:1003100028960FB6F894DEBF0FBECDBFDF91CF9108
:100320001F910F91FF90EF90DF9008952C81222371
:1003300071F320812630B1F62E812111D3CFE7CF82
:100340004A5A594261097109473D54416105710595
:10035000F0F6FC0120812111DACF948D81E09730F5
:10036000B1F6D6CF0F931F93CF93DF938C0180917B
:10037000EF0181112EC1109286018BE891E09093DC
:100380008A018093890181E080938B0180E991E06B
:1003900090938F0180938E0182E08093900185E994
:1003A00091E0909394018093930183E08093950171
:1003B0008AE991E0909399018093980184E0809379
:1003C0009A018FE991E090939E0180939D0185E0D1
:1003D00080939F0184EA91E09093A3018093A2010E
:1003E00086E08093A40189EA91E09093A80180932C
:1003F000A7011092AD011092AC0187E08093A90192
:10040000F80120813181A0E8BEE3B4D22FEF33E0C0
:1004100040E050E093D2F801338322832034FEE39E
:100420003F0708F0E1C0F80133832283258136813C
:10043000A0E8BEE39FD22FEF33E040E050E07ED251
:10044000F801308727832034FEE33F0708F0C9C056
:10045000F8013087278322853385A0E8BEE38AD25E
:100460002FEF33E040E050E069D2F8013587248770
:100470002034FEE33F0708F0BAC0F801358724872F
:10048000109288011092870180E69EE39093AB0161
:100490008093AA018281938190938D0180938C0136
:1004A000809690939201809391018781908590939B
:1004B000970180939601809690939C0180939B0175
:1004C0003093A1012093A001205E3F4F3093A601FD
:1004D0002093A501E0918901F0918A0170E060E02C
:1004E000C6E8D1E018C013969C91139714968C918E
:1004F0001497BC83AB83A381B4811496FC93EE93D1
:100500001397938384836F5F71E06F5F663098F415
:10051000EF01E92FF82FA381B48121813281119657
:100520008D919C91129782179307E8F29A2F8B2F47
:100530006F5F663068F37111CDCF8091EE0181114C
:100540004DC0CEEAD1E0188280E290E09A838983A0
:1005500089819A81813C910508F44CC089819A81F6
:100560008134914008F014C181E08B8345C022E0C2
:100570002B8F298D3A8D0380F481E02D40814C8FA3
:10058000280F391F81819281821B930B9E8F8D8F43
:100590008D8D9E8D813C910508F0E4C082E08F8FA7
:1005A0008D8D9E8D2FB7F89491E09093EF018091FF
:1005B000EE0189278093EE012FBFF8011786CE0147
:1005C00069DE811106C00000CE0164DE811101C028
:1005D0000000DF91CF911F910F910895CEECD1E0F3
:1005E000B2CF2FE33EE334CF2FE33EE31CCF2FE324
:1005F0003EE343CF82E08B8329813A81E0918901F8
:10060000F0918A0180818C8381819281821B930B7E
:100610009E838D838D819E81813C910548F08D81E3
:100620009E818134914008F0B1C081E08F8302C087
:1006300082E08F838D819E81820F931F0380F481DE
:10064000E02D2081288721813281281B390B3A87B0
:10065000298729853A85213C310548F029853A8545
:100660002134314008F090C021E02B8702C022E005
:100670002B8729853A85280F391F0380F481E02DC7
:1006800080818C8781819281821B930B9E878D87CD
:100690008D859E85813C910548F08D859E858134B0
:1006A000914008F06FC081E08F8702C082E08F87A1
:1006B0008D859E85820F931F0380F481E02D20811C
:1006C000288B21813281281B390B3A8B298B298970
:1006D0003A89213C310548F029893A892134314051
:1006E00008F04EC021E02B8B02C022E02B8B298921
:1006F0003A89280F391F0380F481E02D80818C8B8B
:1007000081819281821B930B9E8B8D8B8D899E891B
:10071000813C910540F08D899E898134914070F52E
:1007200081E08F8B02C082E08F8B8D899E89820F42
:10073000931F0380F481E02D2081288F2181328155
:10074000281B390B3A8F298F298D3A8D213C310591
:1007500008F40DCF298D3A8D2134314068F421E021
:100760002B8F07CF8D8D9E8D8134914018F481E0C1
:100770008F8F16CF1F8E14CF1B8EFBCE1F8AD5CF27
:100780001B8AB5CF1F8694CF1B8673CF1F8252CF93
:100790001B8232CF9FB7F8948091EF019FBF0895DD
:1007A00083E083BF85E082BF89B7816089BF8EEF18
:1007B00091E051DD1092FD0168EE73E080E090E081
:1007C00020E030E0A90198D0309381002093800090
:1007D000089586E088BB90E395BB82BB87BB8CE025
:1007E00084BB8EE381BBF894AB9AAA98D9DFC1E0B1
:1007F0008091FB019091FC0101969093FC01809304
:10080000FB0180910D02811170C080918201909155
:100810008301A0918401B09185014091F70150912D
:10082000F8016091F9017091FA018C019D01041B9E
:10083000150B260B370B409180005091810060E032
:1008400070E0041715072607370768F08093F70153
:100850009093F801A093F901B093FA018091F60109
:100860008F5F8093F6018EEF91E094DF8111C0CF0E
:10087000E091F6018091FD01E80F8091F501E80F0C
:10088000E093F501AE2FB0E0AE57BF4F4C91A5E518
:10089000AE0FB0E0AE57BF4F2C91E655F0E0EE57EB
:1008A000FF4F808150E0440F551F440F551F509358
:1008B000FF014093FE0130E0220F331F220F331F50
:1008C000309304022093030290E0880F991F880F51
:1008D000991F9093090280930802C0930D028EEF36
:1008E00091E040DD1092F60183CF8EEF91E03ADD8A
:1008F0008CCF8EEF91E088CCA1E21A2EAA1BBB1BF5
:10090000FD010DC0AA1FBB1FEE1FFF1FA217B307DB
:10091000E407F50720F0A21BB30BE40BF50B661FF1
:10092000771F881F991F1A9469F7609570958095B5
:1009300090959B01AC01BD01CF010895052E97FB59
:1009400016F400940FD057FD05D0D6DF07FC02D077
:1009500046F408C050954095309521953F4F4F4F34
:100960005F4F089590958095709561957F4F8F4F5B
:100970009F4F0895A29FB001B39FC001A39F01D0D4
:10098000B29F700D811D1124911D0895EE0FFF1F60
:0C0990000590F491E02D0994F894FFCF3D
:10099C000040060005400600064006000340060025
:1009AC000440060001400600024006000740060015
:1009BC00E803808386898C8F9295989C9FA2A5A82A
:1009CC00ABAEB0B3B6B9BCBFC1C4C7C9CCCED1D322
:1009DC00D5D8DADCDEE0E2E4E6E8EAECEDEFF0F2C2
:1009EC00F3F5F6F7F8F9FAFBFCFCFDFEFEFEFEFE55
:1009FC00FEFEFEFEFEFEFEFEFEFEFDFCFCFBFAF91C
:100A0C00F8F7F6F5F3F2F0EFEDECEAE8E6E4E2E005
:100A1C00DEDCDAD8D5D3D1CECCC9C7C4C1BFBCB902
:100A2C00B6B3B0AEABA8A5A29F9C9895928F8C89BB
:100A3C008683807C797673706D6A6763605D5A57C4
:100A4C0054514F4C494643403E3B383633312E2CA3
:100A5C002A272523211F1D1B1917151312100F0DE3
:100A6C000C0A090807060504030302010101010130
:100A7C000101010101010101010102030304050649
:100A8C000708090A0C0D0F1012131517191B1D1F3F
:100A9C00212325272A2C2E313336383B3E40434622
:100AAC00494C4F5154575A5D6063676A6D70737649
:020ABC00797C43
:00000001FF
