:100000001BC03FC03EC03DC03CC03BC03BC039C030
:1000100038C037C036C035C034C033C032C031C03C
:1000200030C02FC02EC04FC060C062C069C06BC05E
:1000300072C074C07AC0BF0211241FBECFE5D4E0E5
:10004000DEBFCDBF11E0A0E6B0E0EAE2F6E002C01C
:1000500005900D92A038B107D9F722E0A0E8B1E0F1
:1000600001C01D92AC30B207E1F710E0C8E3D0E068
:1000700003C02297FE01D3D2C633D107D1F76FD286
:10008000D2C2BECF1F920F920FB60F9211242F93A0
:100090008F939F93AF93BF93EF93FF93AB98809110
:1000A000EE01882309F499C0E091EA01F091EB0197
:1000B0008081808190E08830910508F056C0FC0175
:1000C000ED5EFF4F09948091F801882329F0929802
:1000D000C298C19891E074C0E1EFF1E089EF91E03E
:1000E0001192E817F907E1F757C0929A91E068C0BA
:1000F0008091F801882309F44FC0939A91E060C081
:10010000C29A91E05DC08091F401882309F444C053
:10011000949A91E055C0C19A91E052C08091F60145
:100120008823D1F1959A91E04BC093989498959833
:100130008091E901882379F08091E801882319F002
:1001400088EA91E002C088EC91E09093ED01809301
:10015000EC011092E9018091EC019091ED019093F6
:10016000EB018093EA0190E02BC01092EE0191E048
:1001700027C03496F093EB01E093EA0180E188BF59
:10018000E091EA01F091EB01818192819BBD8ABDF2
:100190001DBC1CBCAB9A21C02FEF81EE94E0215016
:1001A00080409040E1F700C00000E091EA01F0914A
:1001B000EB01A081B0E0AF50BE4F81E08C93D9CF6E
:1001C000E091EA01F091EB01A081B0E0AF50BE4FA9
:1001D00081E08C93992391F2CCCFFF91EF91BF9165
:1001E000AF919F918F912F910F900FBE0F901F9005
:1001F0001895CF93DF93EC0188EA91E09093ED019D
:100200008093EC0121E02093E8019093EB0180932F
:10021000EA011092E9012093EE012093F80180E2B7
:10022000E0E6F0E0A8EAB1E001900D928A95E1F7EE
:10023000198218821E821D821B861A861F86DF91F4
:10024000CF910895F894939894989598929AC19A1A
:10025000C29A1FBC1EBC19BE1DBC1CBC80E09AE625
:100260009BBD8ABD8EB588608EBD8EB581608EBD0A
:1002700089B7806189BF80E188BF789408956F92C3
:100280007F928F929F92AF92BF92CF92DF92EF9226
:10029000FF920F931F93CF93DF937C018091E9012D
:1002A0008111F2C0E0E8F1E020E02083CF01059663
:1002B000948383832F5F273011F0FC01F6CF1092D7
:1002C000A7011092A60187E08093A301E70100E057
:1002D00010E00F2E88248A94F3E09F2EA12CB12CDD
:1002E000F02D66246A940F2EF1E37F2EF02D6E011F
:1002F00028813981A0E8BEE362D1A501940143D1F0
:100300003B832A83211582E3380710F0262D372DF1
:10031000D60113963C932E9312970F5F1F4F25968D
:100320000330110521F7109282011092810180E4BF
:1003300098E39093A5018093A401F70182819381B2
:10034000909387018093860182819381805C994F8D
:1003500090938C0180938B0187819085909391017C
:100360008093900187819085805C994F909396014E
:10037000809395018485958590939B0180939A0144
:1003800084859585805C994F9093A00180939F010F
:1003900063E871E0C12C40E851E0DD24D394DB0137
:1003A000ED91FC910C2D1C2DEA0105C0A92FB82F51
:1003B0000D2DEF01FD01A381B481218132811196C0
:1003C0008D919C91129782179307A0F413969C919C
:1003D000139714968C911497BC83AB83A381B4813B
:1003E0001496FC93EE931397938384831E5F1630C9
:1003F000E8F2D5CF1F5F1630E0F20111D0CF809127
:10040000E801882319F0C8ECD1E002C0C8EAD1E0C5
:10041000188280E496E09A83898381E08B83FE01D1
:100420003496A0918301B0918401AE01405E5F4F8C
:1004300080E090E061E02C91208311962D913C9119
:100440001297281B390B3283218321813281213578
:10045000310508F4638321813281820F931F349622
:1004600013960D90BC91A02DE417F50721F79FB7C7
:10047000F89481E08093E901E8EEF1E020818227A1
:1004800080839FBFF7011786DF91CF911F910F9156
:10049000FF90EF90DF90CF90BF90AF909F908F90A4
:1004A0007F906F9008958CEF91E0CCDE0895CF930C
:1004B000DF93A091F901E1E0EA0FE093F901C6E5CD
:1004C000CA0FD0E0C058DF4F288130E0220F331F21
:1004D000220F331FA555B0E0A058BF4F8C9190E07C
:1004E000880F991F880F991FF0E0E058FF4F408157
:1004F00050E0440F551F440F551F5093FD0140938A
:10050000FC01309302022093010290930702809332
:10051000060281E080930B028CEF91E0B0DEDF9168
:10052000CF9108958091FA019091FB0101969093EB
:10053000FB018093FA0180910B02882319F08CEF64
:1005400091E09DDE8091FA019091FB01883E9340FD
:100550002CF0ADDF1092FB011092FA01089586E0B5
:1005600088BB90E395BB82BB87BB8CE084BB8EE3EA
:1005700081BBF894AB9AAA9896DFD4DFFECF8CEFBC
:1005800091E037DE0895052E97FB16F400940FD006
:1005900057FD05D020D007FC02D046F408C0509586
:1005A0004095309521953F4F4F4F5F4F089590955F
:1005B0008095709561957F4F8F4F9F4F0895A29FB3
:1005C000B001B39FC001A39F01D0B29F700D811DE8
:1005D0001124911D0895A1E21A2EAA1BBB1BFD0137
:1005E0000DC0AA1FBB1FEE1FFF1FA217B307E40712
:1005F000F50720F0A21BB30BE40BF50B661F771F6A
:10060000881F991F1A9469F7609570958095909549
:100610009B01AC01BD01CF010895EE0FFF1F0590B6
:0A062000F491E02D0994F894FFCF47
:10062A000040060105400600064006010340060098
:10063A000440060101400600024006010740060088
:10064A00808386898C8F9295989C9FA2A5A8ABAE31
:10065A00B0B3B6B9BCBFC1C4C7C9CCCED1D3D5D843
:10066A00DADCDEE0E2E4E6E8EAECEDEFF0F2F3F5FC
:10067A00F6F7F8F9FAFBFCFCFDFEFEFEFEFEFEFEB6
:10068A00FEFEFEFEFEFEFEFEFDFCFCFBFAF9F8F79E
:10069A00F6F5F3F2F0EFEDECEAE8E6E4E2E0DEDCB0
:1006AA00DAD8D5D3D1CECCC9C7C4C1BFBCB9B6B3C9
:1006BA00B0AEABA8A5A29F9C9895928F8C89868391
:1006CA00807C797673706D6A6763605D5A5754519E
:1006DA004F4C494643403E3B383633312E2C2A276D
:1006EA002523211F1D1B1917151312100F0D0C0A94
:1006FA0009080706050403030201010101010101BA
:10070A0001010101010101010203030405060708B1
:10071A00090A0C0D0F1012131517191B1D1F21237F
:10072A0025272A2C2E313336383B3E404346494C46
:10073A004F5154575A5D6063676A6D707376797C5E
:00000001FF
