:100000001BC03FC03EC03DC03CC03BC03BC039C030
:1000100038C037C036C035C034C033C032C031C03C
:1000200030C02FC02EC0B5C0A1C09EC09BC098C01C
:1000300095C08BC09DC0320411241FBECFE5D4E013
:10004000DEBFCDBF11E0A0E6B0E0EEE0F9E002C017
:1000500005900D92A038B107D9F722E0A0E8B1E0F1
:1000600001C01D92A730B207E1F710E0C8E3D0E06D
:1000700003C02297FE0145D4C633D107D1F767D319
:1000800044C4BECF1F920F920FB60F9211242F932C
:100090003F934F935F936F937F938F939F93AF9310
:1000A000BF93CF93DF93EF93FF9380E89EE39BBDD5
:1000B0008ABDAB988091EE01882381F12AE030E07F
:1000C00061E040E85EE370E1C091EA01D091EB01AC
:1000D000FE018881888190E08830910590F110922E
:1000E000EE01611133C08381823081F08181928180
:1000F0009BBD8ABD8381882381F008B604FC03C0C0
:1001000008B604FEFDCF5BBD4ABD78BF1DBC1CBC5C
:100110002150310921153105B9F6AB9AFF91EF91C4
:10012000DF91CF91BF91AF919F918F917F916F910F
:100130005F914F913F912F910F900FBE0F901F90A5
:100140001895FC01ED5EFF4F0994959AFE013496D7
:10015000F093EB01E093EA0161E0C5CFC19AF6CFDD
:10016000949AF4CFC29AF2CF939AF0CF929AEECFAC
:100170009398949895988091E90181110EC0E0912F
:10018000EC01F091ED01F093EB01E093EA0160E006
:10019000AACF9298C298C198D9CF8091E8018111D5
:1001A00009C0E8ECF1E0F093ED01E093EC0110926E
:1001B000E901E9CFE8EAF1E0F6CFCF93DF93EC0174
:1001C00088EA91E09093ED018093EC0121E0209387
:1001D000E8019093EB018093EA011092E9012093EA
:1001E000EE0180E2E0E6F0E0A8EAB1E001900D92D5
:1001F0008A95E1F7198218821E821D821B861A8653
:100200001F86DF91CF910895F894939894989598CC
:10021000929AC19AC29A1FBC1EBC19BE1DBC1CBCBE
:1002200080E09AE69BBD8ABD8EB588608EBD8EB596
:1002300081608EBD89B7806189BF80E188BF789475
:100240000895DF92EF92FF920F931F93CF93DF9366
:10025000CDB7DEB728970FB6F894DEBF0FBECDBF7F
:100260008E010F5F1F4F28E0F80111922A95E9F7E0
:100270007C01F0E2EF0EF11CFC0140E050E0BA011D
:10028000DD24D39415C02081243039F1208126301B
:1002900051F121813281420F531F611D711D208157
:1002A000D801A20FB11DDC923496EE15FF05F9F0CE
:1002B0002081223041F72A812111E5CF80E0289664
:1002C0000FB6F894DEBF0FBECDBFDF91CF911F9167
:1002D0000F91FF90EF90DF9008952C81222371F30E
:1002E00020812630B1F62E812111D3CFE7CF4A5A93
:1002F000594261097109473D544161057105F0F6A4
:10030000FC0120812111DACF948D81E09730B1F684
:10031000D6CF0F931F93CF93DF938C018091E90188
:1003200081112EC11092800185E891E090938401A3
:100330008093830181E0809385018AE891E0909326
:1003400089018093880182E080938A018FE891E09F
:1003500090938E0180938D0183E080938F0184E9D7
:1003600091E0909393018093920184E080939401B3
:1003700089E991E0909398018093970185E08093BB
:1003800099018EE991E090939D0180939C0186E014
:1003900080939E0183EA91E09093A2018093A10152
:1003A0001092A7011092A60187E08093A301F801A3
:1003B00020813181A0E8BEE396D22FEF33E040E008
:1003C00050E075D2F801338322832034FEE33F07E7
:1003D00008F0E1C0F8013383228325813681A0E84B
:1003E000BEE381D22FEF33E040E050E060D2F8016D
:1003F000308727832034FEE33F0708F0C9C0F801A7
:100400003087278322853385A0E8BEE36CD22FEFA7
:1004100033E040E050E04BD2F801358724872034A8
:10042000FEE33F0708F0BAC0F80135872487109231
:1004300082011092810180E69EE39093A501809352
:10044000A401828193819093870180938601809695
:1004500090938C0180938B0187819085909391017B
:1004600080939001809690939601809395013093AC
:100470009B0120939A01205E3F4F3093A00120936F
:100480009F01E0918301F091840170E060E0C0E899
:10049000D1E018C013969C91139714968C911497E1
:1004A000BC83AB83A381B4811496FC93EE93139722
:1004B000938384836F5F71E06F5F663098F4EF0120
:1004C000E92FF82FA381B4812181328111968D917A
:1004D0009C91129782179307E8F29A2F8B2F6F5FE8
:1004E000663068F37111CDCF8091E80181114DC064
:1004F000C8EAD1E0188280E290E09A8389838981FA
:100500009A81813C910508F44CC089819A8181349B
:10051000914008F014C181E08B8345C022E02B8F0D
:10052000298D3A8D0380F481E02D40814C8F280F76
:10053000391F81819281821B930B9E8F8D8F8D8DB0
:100540009E8D813C910508F0E4C082E08F8F8D8DF7
:100550009E8D2FB7F89491E09093E9018091E80186
:1005600089278093E8012FBFF8011786CE0169DE45
:10057000811106C00000CE0164DE811101C00000BF
:10058000DF91CF911F910F910895C8ECD1E0B2CFC8
:100590002FE33EE334CF2FE33EE31CCF2FE33EE3D4
:1005A00043CF82E08B8329813A81E0918301F091EE
:1005B000840180818C8381819281821B930B9E8335
:1005C0008D838D819E81813C910548F08D819E8136
:1005D0008134914008F0B1C081E08F8302C082E095
:1005E0008F838D819E81820F931F0380F481E02D84
:1005F0002081288721813281281B390B3A8729875E
:1006000029853A85213C310548F029853A852134F0
:10061000314008F090C021E02B8702C022E02B87F8
:1006200029853A85280F391F0380F481E02D8081C8
:100630008C8781819281821B930B9E878D878D850C
:100640009E85813C910548F08D859E858134914041
:1006500008F06FC081E08F8702C082E08F878D85B0
:100660009E85820F931F0380F481E02D2081288BCB
:1006700021813281281B390B3A8B298B29893A89B0
:10068000213C310548F029893A892134314008F06C
:100690004EC021E02B8B02C022E02B8B29893A89A6
:1006A000280F391F0380F481E02D80818C8B81819C
:1006B0009281821B930B9E8B8D8B8D899E89813CB1
:1006C000910540F08D899E898134914070F581E0DB
:1006D0008F8B02C082E08F8B8D899E89820F931F42
:1006E0000380F481E02D2081288F21813281281B15
:1006F000390B3A8F298F298D3A8D213C310508F429
:100700000DCF298D3A8D2134314068F421E02B8FB3
:1007100007CF8D8D9E8D8134914018F481E08F8FAD
:1007200016CF1F8E14CF1B8EFBCE1F8AD5CF1B8AF0
:10073000B5CF1F8694CF1B8673CF1F8252CF1B82EB
:1007400032CF9FB7F8948091E9019FBF089586E06A
:1007500088BB90E395BB82BB87BB8CE084BB8EE3F8
:1007600081BBF894AB9AAA9887EF91E04DDD60E6E3
:10077000C62E6AEED62EE12CF12CC1E08091F30159
:100780009091F40101969093F4018093F30180918C
:100790000602811163C08091F1019091F201883EBF
:1007A0009340B4F01092F2011092F1012091F50102
:1007B0003091F601265F3F4F3093F6012093F5010B
:1007C000A9EFB6E090D0A70196014FD02093F00199
:1007D00087EF91E0B6DF8111D1CFE091EF018091F9
:1007E000F001E80FE093EF01AE2FB0E0A058BF4F4B
:1007F0004C91A5E5AE0FB0E0A058BF4F2C91E65547
:10080000F0E0E058FF4F808150E0440F551F440F47
:10081000551F5093F8014093F70130E0220F331F2A
:10082000220F331F3093FD012093FC0190E0880FCD
:10083000991F880F991F9093020280930102C09321
:10084000060287EF91E065DD8091F1019091F20160
:1008500001969093F2018093F10190CF87EF91E0A0
:1008600058DD99CF87EF91E0A8CCA1E21A2EAA1B00
:10087000BB1BFD010DC0AA1FBB1FEE1FFF1FA21750
:10088000B307E407F50720F0A21BB30BE40BF50B4D
:10089000661F771F881F991F1A9469F760957095D6
:1008A000809590959B01AC01BD01CF010895052E67
:1008B00097FB16F400940FD057FD05D0D6DF07FC48
:1008C00002D046F408C050954095309521953F4F91
:1008D0004F4F5F4F089590958095709561957F4F2C
:1008E0008F4F9F4F0895A29FB001B39FC001A39F58
:1008F00001D0B29F700D811D1124911D0895EE0F3E
:0E090000FF1F0590F491E02D0994F894FFCFAD
:10090E0000400600054006000640060003400600B3
:10091E0004400600014006000240060007400600A3
:10092E00808386898C8F9295989C9FA2A5A8ABAE4A
:10093E00B0B3B6B9BCBFC1C4C7C9CCCED1D3D5D85C
:10094E00DADCDEE0E2E4E6E8EAECEDEFF0F2F3F515
:10095E00F6F7F8F9FAFBFCFCFDFEFEFEFEFEFEFECF
:10096E00FEFEFEFEFEFEFEFEFDFCFCFBFAF9F8F7B7
:10097E00F6F5F3F2F0EFEDECEAE8E6E4E2E0DEDCC9
:10098E00DAD8D5D3D1CECCC9C7C4C1BFBCB9B6B3E2
:10099E00B0AEABA8A5A29F9C9895928F8C898683AA
:1009AE00807C797673706D6A6763605D5A575451B7
:1009BE004F4C494643403E3B383633312E2C2A2786
:1009CE002523211F1D1B1917151312100F0D0C0AAD
:1009DE0009080706050403030201010101010101D3
:1009EE0001010101010101010203030405060708CB
:1009FE00090A0C0D0F1012131517191B1D1F212399
:100A0E0025272A2C2E313336383B3E404346494C5F
:100A1E004F5154575A5D6063676A6D707376797C77
:00000001FF
