:100000001BC03FC03EC03DC03CC03BC03BC039C030
:1000100038C037C036C035C034C033C032C031C03C
:1000200030C02FC02EC053C064C066C06DC06FC04A
:1000300076C078C07FC00D0311241FBECFE5D4E089
:10004000DEBFCDBF10E0A0E6B0E0E6ECF6E002C017
:1000500005900D92A038B107D9F721E0A0E8B0E0F3
:1000600001C01D92AC30B207E1F710E0C8E3D0E068
:1000700003C02297FE0121D3C633D107D1F7BDD2E9
:1000800020C3BECF1F920F920FB60F9211242F9351
:100090008F939F93AF93BF93EF93FF9380E89EE37B
:1000A0009BBD8ABDAB988091EE00882309F4A0C067
:1000B000E091EA00F091EB008081808190E088304F
:1000C000910508F057C0FC01ED5EFF4F0994809147
:1000D000F800882329F09298C298C19891E07BC0DB
:1000E000E1EFF0E089EF90E01192E817F907E1F70E
:1000F0005EC0929A91E06FC08091F800882309F465
:1001000056C0939A91E067C0C29A91E064C0809112
:10011000F400882309F44BC0949A91E05CC0C19A22
:1001200091E059C08091F600882309F440C0959A67
:1001300091E051C09398949895988091E900882314
:1001400079F08091E800882319F088EA90E002C0F5
:1001500088EC90E09093ED008093EC001092E90021
:100160008091EC009091ED009093EB008093EA0079
:1001700090E031C01092EE0091E02DC03496F093E3
:10018000EB00E093EA00E091EA00F091EB0083815C
:10019000811109C0818192819BBD8ABD1DBC1CBC9F
:1001A00080E188BF02C01DBC1CBCAB9A21C02FEFF0
:1001B00081EE94E0215080409040E1F700C00000C3
:1001C000E091EA00F091EB00A081B0E0AF50BF4FAA
:1001D00081E08C93D3CFE091EA00F091EB00A08115
:1001E000B0E0AF50BF4F81E08C93992361F2C6CF4E
:1001F000FF91EF91BF91AF919F918F912F910F90B0
:100200000FBE0F901F901895CF93DF93EC0188EAF3
:1002100090E09093ED008093EC0021E02093E800C3
:100220009093EB008093EA001092E9002093EE0097
:100230002093F80080E2E0E6F0E0A8EAB0E0019068
:100240000D928A95E1F7198218821E821D821B8603
:100250001A861F86DF91CF910895F8949398949809
:100260009598929AC19AC29A1FBC1EBC19BE1DBC19
:100270001CBC80E09AE69BBD8ABD8EB588608EBDB1
:100280008EB581608EBD89B7806189BF80E188BFEE
:1002900078940895FF920F931F93CF93DF93CDB778
:1002A000DEB728970FB6F894DEBF0FBECDBFFE01B4
:1002B00031969E01275F3F4F1192E217F307E1F756
:1002C0008C01005E1F4FFC0140E050E0BA01FF24AA
:1002D000F39420812230F1F42A8121111BC02CC01B
:1002E0002C8121111AC028C02E81211119C024C0CF
:1002F0002081A1E0B0E0AC0FBD1FA20FB11DFC92A8
:100300003496E017F10729F7FC012081211114C070
:10031000848D12C02081243019F32081263021F3EE
:1003200021813281420F531F611D711D41382EE31F
:10033000520761057105E0F280E028960FB6F89447
:10034000DEBF0FBECDBFDF91CF911F910F91FF9008
:1003500008956F927F928F929F92AF92BF92CF92A9
:10036000DF92EF92FF920F931F93CF93DF937C0165
:100370008091E9008111F7C0E0E8F0E020E02083FF
:10038000CF010596948383832F5F273011F0FC0102
:10039000F6CF1092A7001092A60087E08093A300EA
:1003A000E70100E010E00F2E88248A94F3E09F2EEE
:1003B000A12CB12CF02D66246A940F2EF1E37F2E30
:1003C000F02D6E0128813981A0E8BEE346D1A50158
:1003D000940127D13B832A83211582E3380710F04B
:1003E000262D372DD60113963C932E9312970F5F2F
:1003F0001F4F25960330110521F7109282001092AD
:10040000810080E498E39093A5008093A400F70115
:10041000828193819093870080938600828193816B
:10042000805C994F90938C0080938B00878190859E
:10043000909391008093900087819085805C994F84
:1004400090939600809395008485958590939B006A
:1004500080939A0084859585805C994F9093A00045
:1004600080939F0063E870E0C12C40E850E0DD24F9
:10047000D394DB01ED91FC910C2D1C2DEA0105C0FC
:10048000A92FB82F0D2DEF01FD01A381B48121818A
:10049000328111968D919C91129782179307A0F447
:1004A00013969C91139714968C911497BC83AB83ED
:1004B000A381B4811496FC93EE9313979383848362
:1004C0001E5F1630E8F2D5CF1F5F1630E0F2011143
:1004D000D0CF8091E800882319F0C8ECD0E002C0AA
:1004E000C8EAD0E0188280E496E09A83898381E0AC
:1004F0008B83FE013496A0918300B0918400BE01ED
:10050000605E7F4F20E030E091E08C918083119617
:100510004D915C911297421B530B52834183418151
:1005200052814135510508F4938341815281240F52
:10053000351F349613960D90BC91A02DE617F70742
:1005400021F79FB7F89481E08093E900E8EEF0E0AE
:100550002081822780839FBFF7011786CE019ADE14
:10056000811101C00000DF91CF911F910F91FF9089
:10057000EF90DF90CF90BF90AF909F908F907F9043
:100580006F9008958CEF90E068DE08958091F900F7
:100590008F5F8093F90088EF93E09093FD00809344
:1005A000FC009093020180930101909307018093D6
:1005B000060181E080930B018CEF90E0CADE089584
:1005C0008091FA009091FB0001969093FB0080933C
:1005D000FA0080910B01882319F08CEF90E0B9DECE
:1005E0008091FA009091FB0080329E442CF0CEDF87
:1005F0001092FB001092FA00089586E088BB90E309
:1006000095BB82BB87BB8CE084BB8EE381BBF89437
:10061000AB9AAA98B7DFD4DFFECF8CEF90E0F4DD81
:100620000895052E97FB16F400940FD057FD05D0C2
:1006300020D007FC02D046F408C050954095309574
:1006400021953F4F4F4F5F4F08959095809570953E
:1006500061957F4F8F4F9F4F0895A29FB001B39F29
:10066000C001A39F01D0B29F700D811D1124911D67
:100670000895A1E21A2EAA1BBB1BFD010DC0AA1FE3
:10068000BB1FEE1FFF1FA217B307E407F50720F0FB
:10069000A21BB30BE40BF50B661F771F881F991F76
:1006A0001A9469F760957095809590959B01AC01BF
:1006B000BD01CF010895EE0FFF1F0590F491E02DCD
:0606C0000994F894FFCF3D
:1006C60000400601054006000640060103400600FC
:1006D60004400601014006000240060107400600EC
:00000001FF
