:100000001BC03FC03EC03DC03CC03BC03BC039C030
:1000100038C037C036C035C034C033C032C031C03C
:1000200030C02FC02EC0A8C094C091C08EC08BC05D
:1000300088C07BC090C0200411241FBECFE5D4E04F
:10004000DEBFCDBF11E0A0E6B0E0EAEEF8E002C00E
:1000500005900D92A038B107D9F722E0A0E8B1E0F1
:1000600001C01D92A230B207E1F710E0C8E3D0E072
:1000700003C02297FE0133D4C633D107D1F77FD313
:1000800032C4BECF1F920F920FB60F9211242F933E
:100090003F934F938F939F93AF93BF93EF93FF93B0
:1000A00080E89EE39BBD8ABDAB988091EE018823DA
:1000B00051F1E091EA01F091EB012AE030E041E0FA
:1000C0008081808190E08830910558F11092EE0196
:1000D000411130C08381823071F08381882309F41B
:1000E0005FC0818192819BBD8ABD08B604FC03C0BC
:1000F00008B604FEFDCF1DBC1CBC215031092115E2
:100100003105F1F6AB9AFF91EF91BF91AF919F91BD
:100110008F914F913F912F910F900FBE0F901F9095
:100120001895FC01ED5EFF4F0994959AE091EA0164
:10013000F091EB013496F093EB01E093EA0141E09A
:10014000C9CFC19AF3CF949AF1CFC29AEFCF939AC5
:10015000EDCF929AEBCF9398949895988091E9017E
:1001600081110EC0E091EC01F091ED01F093EB01F3
:10017000E093EA0140E0AECF9298C298C198D6CF02
:100180008091E801811109C0E8ECF1E0F093ED0104
:10019000E093EC011092E901E9CFE8EAF1E0F6CF53
:1001A000818192819BBD8ABDADCFCF93DF93EC015E
:1001B00088EA91E09093ED018093EC0121E0209397
:1001C000E8019093EB018093EA011092E9012093FA
:1001D000EE0180E2E0E6F0E0A8EAB1E001900D92E5
:1001E0008A95E1F7198218821E821D821B861A8663
:1001F0001F86DF91CF910895F894939894989598DD
:10020000929AC19AC29A1FBC1EBC19BE1DBC1CBCCE
:1002100080E09AE69BBD8ABD8EB588608EBD8EB5A6
:1002200081608EBD89B7806189BF80E188BF789485
:1002300008958F929F92AF92BF92EF92FF920F9389
:100240001F93CF93DF93CDB7DEB728970FB6F894FF
:10025000DEBF0FBECDBF8C018091E90181117AC153
:100260001092800185E891E090938401809383014E
:1002700081E0809385018AE891E0909389018093E1
:10028000880182E080938A018FE891E090938E014B
:1002900080938D0183E080938F0184E991E09093B6
:1002A00093018093920184E08093940189E991E025
:1002B000909398018093970185E0809399018EE94E
:1002C00091E090939D0180939C0186E080939E0134
:1002D00083EA91E09093A2018093A1011092A7017B
:1002E0001092A60187E08093A301D8012D913C9143
:1002F000A0E8BEE3C4D22FEF33E040E050E0A3D249
:10030000F801338322832034FEE33F0708F039C12C
:10031000D80113963C932E93129715962D913C91EC
:100320001697A0E8BEE3ABD22FEF33E040E050E0F9
:100330008AD2F801308727832034FEE33F0708F094
:100340001DC1D80118963C932E9317971A962D919C
:100350003C911B97A0E8BEE392D22FEF33E040E040
:1003600050E071D2F801358724872034FEE33F073F
:1003700008F00AC1D8011D963C932E931C97109249
:1003800082011092810180E69EE39093A501809303
:10039000A40112968D919C9113979093870180935D
:1003A0008601809690938C0180938B0117968D9196
:1003B0009C911897909391018093900180969093CF
:1003C00096018093950130939B0120939A01205EC2
:1003D0003F4F3093A00120939F01E0918301F09162
:1003E000840170E060E040E851E01AC013969C91EF
:1003F000139714968C91DA011496FC92EE9213974F
:10040000A381B4811496FC93EE9313979383848312
:100410006F5F71E06F5F6630A0F4AF01E92FF82FD6
:10042000E380F48021813281D70111968D919C91D6
:10043000129782179307D0F29E2D8F2D6F5F663033
:1004400060F37111CACF8091E801811194C0E8EA8C
:10045000F1E0108280E290E0928381838181928139
:10046000813C910508F493C081819281813491404F
:1004700008F083C181E083838CC022E0238F218D2B
:10048000328D13960D90BC91A02D4C91448F280F66
:10049000391F11968D919C911297821B930B968F09
:1004A000858F858D968D813C910508F050C182E045
:1004B000878F858D968D2FB7F89491E09093E90101
:1004C0008091E80189278093E8012FBFD8011F960A
:1004D0001C92BE016F5F7F4F88E0DB011D928A9501
:1004E000E9F78F01005E1F4F9F01812C912C540171
:1004F000FF24F394D9014C91423009F412C1D9017F
:100500004C91443009F416C1D9014C91463009F49C
:100510001AC1D90111964D915C911297840E951EC6
:10052000A11CB11CB1E88B16BEE39B06A104B1046B
:1005300080F4D9014C91CB01840F911DDC01FC9218
:100540002C5F3F4F20173107A9F68081811101C030
:10055000848D000028960FB6F894DEBF0FBECDBF85
:10056000DF91CF911F910F91FF90EF90BF90AF90CF
:100570009F908F900895E8ECF1E06BCF2FE33EE37E
:10058000E0CE2FE33EE3C4CE2FE33EE3F3CE82E0A2
:10059000838321813281A0918301B09184018C9168
:1005A000848311968D919C911297821B930B968355
:1005B000858385819681813C910548F0858196816E
:1005C0008134914008F0D7C081E0878302C082E087
:1005D000878385819681820F931F13960D90BC911E
:1005E000A02D2C91208711962D913C911297281BBC
:1005F000390B3287218721853285213C310548F02E
:10060000218532852134314008F0B3C021E02387B1
:1006100002C022E0238721853285280F391F1396D7
:100620000D90BC91A02D8C91848711968D919C91F9
:100630001297821B930B9687858785859685813CCB
:10064000910548F0858596858134914008F08FC0EA
:1006500081E0878702C082E0878785859685820F43
:10066000931F13960D90BC91A02D2C91208B119669
:100670002D913C911297281B390B328B218B2189AC
:100680003289213C310548F02189328921343140B9
:1006900008F06BC021E0238B02C022E0238B21896C
:1006A0003289280F391F13960D90BC91A02D8C9183
:1006B000848B11968D919C911297821B930B968B34
:1006C000858B85899689813C910548F08589968935
:1006D0008134914008F047C081E0878B02C082E0FE
:1006E000878B85899689820F931F13960D90BC91F5
:1006F000A02D2C91208F11962D913C911297281BA3
:10070000390B328F218F218D328D213C310508F438
:10071000B4CE218D328D2134314018F521E0238F64
:10072000AECE4A81442309F414CFD9014C91443010
:1007300009F0EACE4C81442309F40BCFD9014C9146
:10074000463009F0E6CE4E814111E3CE02CF858DD1
:10075000968D8134914018F481E0878FAACE178E50
:10076000A8CE138E8CCE178ABCCF138A98CF17864B
:1007700074CF138650CF17822CCF13820ACF86E016
:1007800088BB90E395BB82BB87BB8CE084BB8EE3C8
:1007900081BBF894AB9AAA9882EF91E02DDD80910D
:1007A000F0019091F101C1E001969093F1018093E5
:1007B000F0012091010221113BC084369105A4F380
:1007C000E091EF01A1E0AE0FA093EF01B0E0A058DF
:1007D000BF4F4C91A6E5AE0FB0E0A058BF4F2C9193
:1007E000E555F0E0E058FF4F808150E0440F551F81
:1007F000440F551F5093F3014093F20130E0220F54
:10080000331F220F331F3093F8012093F70190E03C
:10081000880F991F880F991F9093FD018093FC0109
:10082000C093010282EF91E004DD80E090E0BCCF54
:1008300082EF91E0FEDC8091F0019091F101BDCF5B
:1008400082EF91E0B2CC052E97FB16F400940FD006
:1008500057FD05D020D007FC02D046F408C05095C3
:100860004095309521953F4F4F4F5F4F089590959C
:100870008095709561957F4F8F4F9F4F0895A29FF0
:10088000B001B39FC001A39F01D0B29F700D811D25
:100890001124911D0895A1E21A2EAA1BBB1BFD0174
:1008A0000DC0AA1FBB1FEE1FFF1FA217B307E4074F
:1008B000F50720F0A21BB30BE40BF50B661F771FA7
:1008C000881F991F1A9469F7609570958095909587
:1008D0009B01AC01BD01CF010895EE0FFF1F0590F4
:0A08E000F491E02D0994F894FFCF85
:1008EA0000400600054006000640060003400600D8
:1008FA0004400600014006000240060007400600C8
:10090A00808386898C8F9295989C9FA2A5A8ABAE6E
:10091A00B0B3B6B9BCBFC1C4C7C9CCCED1D3D5D880
:10092A00DADCDEE0E2E4E6E8EAECEDEFF0F2F3F539
:10093A00F6F7F8F9FAFBFCFCFDFEFEFEFEFEFEFEF3
:10094A00FEFEFEFEFEFEFEFEFDFCFCFBFAF9F8F7DB
:10095A00F6F5F3F2F0EFEDECEAE8E6E4E2E0DEDCED
:10096A00DAD8D5D3D1CECCC9C7C4C1BFBCB9B6B306
:10097A00B0AEABA8A5A29F9C9895928F8C898683CE
:10098A00807C797673706D6A6763605D5A575451DB
:10099A004F4C494643403E3B383633312E2C2A27AA
:1009AA002523211F1D1B1917151312100F0D0C0AD1
:1009BA0009080706050403030201010101010101F7
:1009CA0001010101010101010203030405060708EF
:1009DA00090A0C0D0F1012131517191B1D1F2123BD
:1009EA0025272A2C2E313336383B3E404346494C84
:1009FA004F5154575A5D6063676A6D707376797C9C
:00000001FF
