:100000001BC03FC03EC03DC03CC03BC064C139C006
:1000100038C037C036C035C034C033C032C031C03C
:1000200030C02FC02EC0ACC1B1C1B4C1B7C1BAC1BC
:10003000BDC1C0C1C3C1070711241FBECFE5D4E0B5
:10004000DEBFCDBF11E0A0E6B0E0EEEDFEE002C005
:1000500005900D92A038B107D9F722E0A0E8B1E0F1
:1000600001C01D92A230B207E1F710E0C8E3D0E072
:1000700003C02297FE0121D7C633D107D1F7F4D5AB
:100080002CC7BECFCF93DF931F92CDB7DEB7898346
:100090000F90DF91CF910895CF93DF93CDB7DEB767
:1000A00085E390E025E330E0F9012081277FFC0122
:1000B0002083DF91CF910895CF93DF93CDB7DEB743
:1000C00085E390E025E330E0F90120812860FC0120
:1000D0002083DF91CF910895CF93DF93CDB7DEB723
:1000E00082E390E022E330E0F90120812B7FFC01E4
:1000F0002083DF91CF910895CF93DF93CDB7DEB703
:1001000082E390E022E330E0F90120812460FC01E9
:100110002083DF91CF910895CF93DF93CDB7DEB7E2
:1001200082E390E022E330E0F90120812860FC01C5
:100130002083DF91CF910895CF93DF93CDB7DEB7C2
:1001400082E390E022E330E0F9012081277FFC0187
:100150002083DF91CF910895CF93DF93CDB7DEB7A2
:1001600088E390E028E330E0F90120812B7FFC0157
:100170002083DF91CF910895CF93DF93CDB7DEB782
:1001800088E390E028E330E0F90120812460FC015D
:100190002083DF91CF910895CF93DF93CDB7DEB762
:1001A00082E390E022E330E0F90120812061FC014C
:1001B0002083DF91CF910895CF93DF93CDB7DEB742
:1001C00082E390E022E330E0F90120812F7EFC0100
:1001D0002083DF91CF910895CF93DF93CDB7DEB722
:1001E00088E390E028E330E0F90120812D7FFC01D5
:1001F0002083DF91CF910895CF93DF93CDB7DEB702
:1002000088E390E028E330E0F90120812260FC01DE
:100210002083DF91CF910895CF93DF93CDB7DEB7E1
:1002200082E390E022E330E0F90120812062FC01CA
:100230002083DF91CF910895CF93DF93CDB7DEB7C1
:1002400082E390E022E330E0F90120812F7DFC0180
:100250002083DF91CF910895CF93DF93CDB7DEB7A1
:100260004BDFCADF89DFDF91CF910895CF93DF9312
:10027000CDB7DEB761DFA0DFDFDFDF91CF9108957B
:10028000CF93DF93CDB7DEB728970FB6F894DEBFD4
:100290000FBECDBF9A8389837C836B838B819C81C6
:1002A0009C0140E050E080E89EE3DC01D8D5DC0111
:1002B000CB012FEF33E040E050E0BC01CD01B3D5DE
:1002C000DA01C90128960FB6F894DEBF0FBECDBF84
:1002D000DF91CF9108951F920F9200905F000F92CF
:1002E00011242F933F934F935F936F937F938F933B
:1002F0009F93AF93BF93EF93FF93CF93DF93CDB7CC
:10030000DEB72597DEBFCDBF8AE490E020E83EE36C
:10031000FC013183208388E0B5DEBEDE81E0898385
:100320001C821D829091C60181E08927882309F0F3
:10033000BFC01B821A82B3C089E0A4DE8091C201D3
:100340009091C301FC0180819DDE8091C20190915A
:10035000C301FC018081882F90E0AA2797FDA0951A
:10036000BA2F40E050E027E030E0841B950B2817BF
:10037000390708F445C08D5E9F4F8F939F93089572
:10038000ABDEEADE29DF81E089833FC0B5DE81E0B4
:1003900089833BC0C1DE81E0898337C0EDDE81E027
:1003A000898333C0F9DE81E089832FC025DF81E0B6
:1003B00089832BC031DF81E0898327C0BDDEFCDE6D
:1003C0003BDF8091C101882389F08AE05BDE809168
:1003D000C001882319F080E891E002C080EA91E032
:1003E0009093C5018093C4011092C1018091C40112
:1003F0009091C5019093C3018093C201198205C0F9
:100400008FEF40DE1092C60100008981882349F0F9
:100410008091C2019091C30104969093C30180938F
:10042000C2018091C2019091C301FC01938181E0DE
:10043000923009F480E0882341F18091C2019091CB
:10044000C301FC01938181E0992309F080E08823B6
:1004500069F08AE490E02091C2013091C301F90172
:1004600021813281FC01318320831FC000C088E5D7
:1004700090E0FC018081882F90E08071992721E035
:10048000009709F020E0222391F78CE490E0FC0132
:10049000118210828A819B8101969B838A838A8143
:1004A0009B818A3091050CF447CF06DE8BE0EADDB4
:1004B0000F900F900F900F900F90DF91CF91FF91C1
:1004C000EF91BF91AF919F918F917F916F915F91CC
:1004D0004F913F912F910F9000925F000F901F90CE
:1004E0001895CF93DF9300D01F92CDB7DEB79B83D3
:1004F0008A8380E891E09093C5018093C40181E0F4
:100500008093C00180E891E09093C3018093C20181
:100510001092C10181E08093C60180E2E0E6F0E044
:10052000A0E8B1E001900D928A95E1F7198214C01C
:100530008981282F30E04A815B81C901880F991F8A
:10054000880F991F820F931F840F951FFC01118242
:10055000108289818F5F89838981833048F38A8102
:100560009B81FC0117860F900F900F90DF91CF9128
:100570000895CF93DF9300D0CDB7DEB79A838983F8
:10058000F89474DE69DE8FE490E0FC0110828EE462
:1005900090E0FC01108289E590E0FC0110828CE47F
:1005A00090E0FC01118210828AE490E020E03AE6BB
:1005B000FC01318320838EE490E02EE430E0F901E9
:1005C00020812860FC0120838EE490E02EE430E05E
:1005D000F90120812160FC01208389E590E029E573
:1005E00030E0F90120812061FC01208388E590E062
:1005F00020E1FC01208378940F900F90DF91CF9140
:100600000895CF93DF93CDB7DEB768970FB6F89410
:10061000DEBF0FBECDBF988F8F8B8091C101882325
:1006200009F0D8C18EE02EDD1D821986188681E082
:1006300029DD1A8631C08A85282F30E0C901880F4C
:10064000991F880F991F820F931F89539E4F2A85E8
:10065000FC0120838A85282F30E08A85882F90E04E
:10066000AC014F5F5F4FCA01880F991F880F991F18
:10067000840F951FAC0149535E4FC901880F991F24
:10068000880F991F820F931F86539E4FFC01518341
:1006900040838A858F5F8A878A85873060F21092CF
:1006A000EE011092ED0187E08093EA0182E0EADC3E
:1006B0001C861B8638C04F89588D2B853C85C90107
:1006C000880F991F880F991F820F931F840F951F02
:1006D000FC01208131818F89988DB901D1DD998B01
:1006E000888B888999898034FEE39F0710F08FE317
:1006F0009EE3998B888B4F89588D2B853C85C9014A
:10070000880F991F880F991F820F931F840F951FC1
:10071000029628893989FC01318320838B859C8549
:1007200001969C878B878B859C858330910518F279
:1007300083E0A8DC1092C9011092C80180E69EE314
:100740009093EC018093EB018F89988DFC0182815D
:1007500093819093CE018093CD018F89988DFC0178
:100760008281938180969093D3018093D2018F8967
:10077000988DFC01878190859093D8018093D70153
:100780008F89988DFC018781908580969093DD01FB
:100790008093DC018F89988DFC01848595859093E9
:1007A000E2018093E1018F89988DFC018485958514
:1007B00080969093E7018093E60184E063DC85E016
:1007C00061DC1D828091CA019091CB019A8389835B
:1007D00087EC91E09C838B831D8686E053DC8981C6
:1007E0009A81FC012181328189819A81FC01838176
:1007F0009481FC01818192818217930750F5898150
:100800009A81FC0183819481FC01838194819B8B7B
:100810008A8B89819A81FC01238134818B819C811F
:10082000FC013483238389819A81FC018381948133
:1008300029813A81FC013483238389819A812A8921
:100840003B89FC013483238381E08D878D818F5F19
:100850008D8389819A819C838B8389819A81FC0114
:10086000838194819A8389838D818F5F8D838D812C
:10087000863008F4B2CF8D85882309F0A0CF80910F
:10088000C001882319F080EA91E002C080E891E07D
:100890009F838E838E819F819D8B8C8B8E819F8188
:1008A000FC0110828E819F8120E230E0FC013283C6
:1008B000218387EC91E09A8389831F861E865FC01F
:1008C0008E859F850097B1F089819A81FC012081F6
:1008D0008E819F81FC01208389819A81FC01218185
:1008E000328188859985281B390B8E819F81FC0177
:1008F000328321838E819F81FC018181928121E05D
:10090000813C910508F020E0222331F08E819F8107
:1009100022E0FC01238317C08E819F81FC0181812D
:10092000928121E08134F1E09F0708F020E022234A
:1009300031F08E819F8121E0FC01238304C08E81F0
:100940009F81FC0113828E819F81FC0181819281B4
:1009500028853985820F931F998788878E819F818B
:1009600004969F838E8389819A81FC01838194817F
:100970009A8389838E859F8501969F878E878E8532
:100980009F85883091050CF49BCF8FE590E0FC01AA
:1009900080818E8BF89481E08093C1019091C00199
:1009A00081E089278093C0018FE590E02E89FC01CA
:1009B00020838F89988DFC0117868C899D8913D09F
:1009C000982F81E08927882319F08DE05BDB0000F8
:1009D0008EE058DB68960FB6F894DEBF0FBECDBF31
:1009E000DF91CF910895CF93DF93CDB7DEB76397B3
:1009F0000FB6F894DEBF0FBECDBF9B8B8A8B1986D6
:100A00008A899B899A8389831B821C821D821E820C
:100A10001F820DC08F81882F90E09E01265F3F4F7F
:100A2000820F931FFC0110828F818F5F8F838F81D4
:100A3000883080F318866CC089819A81FC0180819E
:100A4000823039F49B8581E08927882311F081E089
:100A500001C080E0882311F080E078C089819A810C
:100A6000FC018081843039F49D8581E089278823C9
:100A700011F081E001C080E0882311F080E066C0C1
:100A800089819A81FC018081863039F49F8581E0DB
:100A90008927882311F081E001C080E0882311F0CC
:100AA00080E054C089819A81FC0181819281CC01CE
:100AB000A0E0B0E02B813C814D815E81820F931FCD
:100AC000A41FB51F8B839C83AD83BE838B819C81C8
:100AD000AD81BE818138FEE39F07A105B10510F00D
:100AE00080E034C089819A81FC018081882F90E068
:100AF0009E01265F3F4F820F931F21E0FC01208360
:100B000089819A8104969A83898388858F5F8887F3
:100B10008885883008F490CF8A899B89FC01908170
:100B200081E0992309F480E0882311F080E00EC071
:100B30008A899B894C96FC01908181E0973009F469
:100B400080E0882311F080E001C0898563960FB6AC
:100B5000F894DEBF0FBECDBFDF91CF910895CF9344
:100B6000DF9300D0CDB7DEB79A83898389819A81DC
:100B7000FC018785882319F089819A8142DD0F90D5
:100B80000F90DF91CF910895CF93DF9300D0CDB731
:100B9000DEB79A83898389819A8121E0FC012787C6
:100BA00089819A812EDD0F900F90DF91CF9108956A
:100BB000CF93DF9300D000D01F92CDB7DEB79A83DA
:100BC00089836B835D834C838B81282F30E04C813C
:100BD0005D8169817A81C901880F991F880F991FEA
:100BE000820F931F860F971FFC01518340830F9044
:100BF0000F900F900F900F90DF91CF910895CF93AA
:100C0000DF93CDB7DEB785E390E025E330E0F9016F
:100C100020812B7FFC012083DF91CF910895CF931A
:100C2000DF93CDB7DEB788E390E026E0FC012083B8
:100C300085E390E020E3FC01208382E390E026E05E
:100C4000FC01208387E390E026E0FC01208384E31D
:100C500090E02CE0FC01208381E390E02EE3FC0196
:100C60002083DF91CF910895CF93DF931F92CDB76B
:100C7000DEB7D5DFF89420DAC2DF80E003DA19822C
:100C800005C08981FFD989818F5F898389818031FE
:100C9000C0F380E0F7D902D00FD0FECFCF93DF931F
:100CA000CDB7DEB781E0EED98FEE91E062DC82E075
:100CB000E9D9DF91CF910895CF93DF93CDB7DEB718
:100CC00083E0E0D98091FF0190910002019690931A
:100CD00000028093FF018FEE91E041DF84E0D2D9E2
:100CE0008091FF0190910002181619062CF409D08A
:100CF000109200021092FF0185E0C4D9DF91CF91DC
:100D00000895CF93DF93CDB7DEB729970FB6F89448
:100D1000DEBF0FBECDBF809101028F5F80930102C5
:100D2000809101028983809101028B5A8A838A8192
:100D30008B5A8B838981882F90E080589F4FFC01CC
:100D40008081882F90E0880F991F880F991F9D83BD
:100D50008C838A81882F90E080589F4FFC0180818E
:100D6000882F90E0880F991F880F991F9F838E838B
:100D70008B81882F90E080589F4FFC018081882FC5
:100D800090E0880F991F880F991F998788878C8119
:100D90009D81AC0160E08FEE91E00ADF8E819F8142
:100DA000AC0161E08FEE91E003DF88859985AC01AD
:100DB00062E08FEE91E0FCDE8FEE91E0E5DE2996B9
:100DC0000FB6F894DEBF0FBECDBFDF91CF9108956F
:100DD000CF93DF9300D000D0CDB7DEB79A8389835D
:100DE0007C836B8389819A818130910549F48B8161
:100DF0009C818F3F2FEF920719F48FEE91E071DB0A
:100E00000F900F900F900F90DF91CF910895CF9397
:100E1000DF93CDB7DEB76FEF7FEF81E090E0D8DFF3
:100E2000DF91CF910895052E97FB16F400940FD013
:100E300057FD05D01ED007FC02D046F408C05095DF
:100E40004095309521953F4F4F4F5F4F08959095B6
:100E50008095709561957F4F8F4F9F4F089531D04A
:100E6000A59F900DB49F900DA49F800D911D1124FE
:100E70000895A1E21A2EAA1BBB1BFD010DC0AA1FDB
:100E8000BB1FEE1FFF1FA217B307E407F50720F0F3
:100E9000A21BB30BE40BF50B661F771F881F991F6E
:100EA0001A9469F760957095809590959B01AC01B7
:100EB000BD01CF010895EE0FFF1F0590F491E02DC5
:100EC0000994A29FB001B39FC001A39F01D0B29F1C
:0E0ED000700D811D1124911D0895F894FFCF1F
:100EDE0000400600054006000640060003400600DE
:100EEE0004400600014006000240060007400600CE
:100EFE00808386898C8F9295989C9FA2A5A8ABAE75
:100F0E00B0B3B6B9BCBFC1C4C7C9CCCED1D3D5D886
:100F1E00DADCDEE0E2E4E6E8EAECEDEFF0F2F3F53F
:100F2E00F6F7F8F9FAFBFCFCFDFEFEFEFEFEFEFEF9
:100F3E00FEFEFEFEFEFEFEFEFDFCFCFBFAF9F8F7E1
:100F4E00F6F5F3F2F0EFEDECEAE8E6E4E2E0DEDCF3
:100F5E00DAD8D5D3D1CECCC9C7C4C1BFBCB9B6B30C
:100F6E00B0AEABA8A5A29F9C9895928F8C898683D4
:100F7E00807C797673706D6A6763605D5A575451E1
:100F8E004F4C494643403E3B383633312E2C2A27B0
:100F9E002523211F1D1B1917151312100F0D0C0AD7
:100FAE0009080706050403030201010101010101FD
:100FBE0001010101010101010203030405060708F5
:100FCE00090A0C0D0F1012131517191B1D1F2123C3
:100FDE0025272A2C2E313336383B3E404346494C8A
:100FEE004F5154575A5D6063676A6D707376797CA2
:00000001FF
